{"abi":[{"type":"function","name":"counter","inputs":[],"outputs":[{"name":"","type":"uint32","internalType":"uint32"}],"stateMutability":"view"},{"type":"function","name":"decreaseCounter","inputs":[],"outputs":[{"name":"","type":"uint32","internalType":"uint32"}],"stateMutability":"nonpayable"},{"type":"function","name":"increaseCounter","inputs":[],"outputs":[{"name":"","type":"uint32","internalType":"uint32"}],"stateMutability":"nonpayable"}],"bytecode":{"object":"0x6080604052348015600e575f5ffd5b5061024b8061001c5f395ff3fe608060405234801561000f575f5ffd5b506004361061003f575f3560e01c806361bc221a146100435780638bba42b314610061578063b49004e91461007f575b5f5ffd5b61004b61009d565b604051610058919061017d565b60405180910390f35b6100696100b1565b604051610076919061017d565b60405180910390f35b610087610109565b604051610094919061017d565b60405180910390f35b5f5f9054906101000a900463ffffffff1681565b5f5f5f5f9054906101000a900463ffffffff1690505f8163ffffffff1611156101025780806100df906101c3565b915050805f5f6101000a81548163ffffffff021916908363ffffffff1602179055505b8091505090565b5f5f5f81819054906101000a900463ffffffff168092919061012a906101ea565b91906101000a81548163ffffffff021916908363ffffffff160217905550505f5f9054906101000a900463ffffffff16905090565b5f63ffffffff82169050919050565b6101778161015f565b82525050565b5f6020820190506101905f83018461016e565b92915050565b7f4e487b71000000000000000000000000000000000000000000000000000000005f52601160045260245ffd5b5f6101cd8261015f565b91505f82036101df576101de610196565b5b600182039050919050565b5f6101f48261015f565b915063ffffffff820361020a57610209610196565b5b60018201905091905056fea2646970667358221220e4c12644546e5a63a15c555e8ad4f28823b86b458dfc44e17e2271496cfac91e64736f6c634300081e0033","linkReferences":{}},"methodIdentifiers":{"counter()":"61bc221a","decreaseCounter()":"8bba42b3","increaseCounter()":"b49004e9"},"id":0}