{"abi":[{"type":"function","name":"deposit","inputs":[{"name":"amount","type":"uint64","internalType":"uint64"}],"outputs":[],"stateMutability":"nonpayable"},{"type":"function","name":"getBalance","inputs":[],"outputs":[{"name":"","type":"uint64","internalType":"uint64"}],"stateMutability":"view"},{"type":"function","name":"transfer","inputs":[{"name":"destinationAccount","type":"address","internalType":"address"},{"name":"amount","type":"uint64","internalType":"uint64"}],"outputs":[],"stateMutability":"nonpayable"},{"type":"function","name":"withdraw","inputs":[{"name":"amount","type":"uint64","internalType":"uint64"}],"outputs":[],"stateMutability":"nonpayable"}],"bytecode":{"object":"0x6080604052348015600e575f5ffd5b50610b3d8061001c5f395ff3fe608060405234801561000f575f5ffd5b506004361061004a575f3560e01c806312065fe01461004e578063137658381461006c5780635d359fbd14610088578063750f0acc146100a4575b5f5ffd5b6100566100c0565b60405161006391906106d0565b60405180910390f35b61008660048036038101906100819190610717565b610116565b005b6100a2600480360381019061009d919061079c565b610221565b005b6100be60048036038101906100b99190610717565b6104fd565b005b5f5f5f3373ffffffffffffffffffffffffffffffffffffffff1673ffffffffffffffffffffffffffffffffffffffff1681526020019081526020015f205f9054906101000a900467ffffffffffffffff16905090565b5f8167ffffffffffffffff1611610162576040517f08c379a00000000000000000000000000000000000000000000000000000000081526004016101599061085a565b60405180910390fd5b805f5f3373ffffffffffffffffffffffffffffffffffffffff1673ffffffffffffffffffffffffffffffffffffffff1681526020019081526020015f205f9054906101000a900467ffffffffffffffff166101bd91906108a5565b5f5f3373ffffffffffffffffffffffffffffffffffffffff1673ffffffffffffffffffffffffffffffffffffffff1681526020019081526020015f205f6101000a81548167ffffffffffffffff021916908367ffffffffffffffff16021790555050565b5f8167ffffffffffffffff161161026d576040517f08c379a000000000000000000000000000000000000000000000000000000000815260040161026490610950565b60405180910390fd5b5f5f3373ffffffffffffffffffffffffffffffffffffffff1673ffffffffffffffffffffffffffffffffffffffff1681526020019081526020015f205f9054906101000a900467ffffffffffffffff1667ffffffffffffffff168167ffffffffffffffff161115610313576040517f08c379a000000000000000000000000000000000000000000000000000000000815260040161030a906109b8565b60405180910390fd5b5f73ffffffffffffffffffffffffffffffffffffffff168273ffffffffffffffffffffffffffffffffffffffff1603610381576040517f08c379a000000000000000000000000000000000000000000000000000000000815260040161037890610a20565b60405180910390fd5b805f5f3373ffffffffffffffffffffffffffffffffffffffff1673ffffffffffffffffffffffffffffffffffffffff1681526020019081526020015f205f9054906101000a900467ffffffffffffffff166103dc9190610a3e565b5f5f3373ffffffffffffffffffffffffffffffffffffffff1673ffffffffffffffffffffffffffffffffffffffff1681526020019081526020015f205f6101000a81548167ffffffffffffffff021916908367ffffffffffffffff160217905550805f5f8473ffffffffffffffffffffffffffffffffffffffff1673ffffffffffffffffffffffffffffffffffffffff1681526020019081526020015f205f9054906101000a900467ffffffffffffffff1661049891906108a5565b5f5f8473ffffffffffffffffffffffffffffffffffffffff1673ffffffffffffffffffffffffffffffffffffffff1681526020019081526020015f205f6101000a81548167ffffffffffffffff021916908367ffffffffffffffff1602179055505050565b5f8167ffffffffffffffff1611610549576040517f08c379a000000000000000000000000000000000000000000000000000000000815260040161054090610ae9565b60405180910390fd5b5f5f3373ffffffffffffffffffffffffffffffffffffffff1673ffffffffffffffffffffffffffffffffffffffff1681526020019081526020015f205f9054906101000a900467ffffffffffffffff1667ffffffffffffffff168167ffffffffffffffff1611156105ef576040517f08c379a00000000000000000000000000000000000000000000000000000000081526004016105e6906109b8565b60405180910390fd5b805f5f3373ffffffffffffffffffffffffffffffffffffffff1673ffffffffffffffffffffffffffffffffffffffff1681526020019081526020015f205f9054906101000a900467ffffffffffffffff1661064a9190610a3e565b5f5f3373ffffffffffffffffffffffffffffffffffffffff1673ffffffffffffffffffffffffffffffffffffffff1681526020019081526020015f205f6101000a81548167ffffffffffffffff021916908367ffffffffffffffff16021790555050565b5f67ffffffffffffffff82169050919050565b6106ca816106ae565b82525050565b5f6020820190506106e35f8301846106c1565b92915050565b5f5ffd5b6106f6816106ae565b8114610700575f5ffd5b50565b5f81359050610711816106ed565b92915050565b5f6020828403121561072c5761072b6106e9565b5b5f61073984828501610703565b91505092915050565b5f73ffffffffffffffffffffffffffffffffffffffff82169050919050565b5f61076b82610742565b9050919050565b61077b81610761565b8114610785575f5ffd5b50565b5f8135905061079681610772565b92915050565b5f5f604083850312156107b2576107b16106e9565b5b5f6107bf85828601610788565b92505060206107d085828601610703565b9150509250929050565b5f82825260208201905092915050565b7f54686520616d6f756e7420746f206465706f736974206d7573742062652067725f8201527f6561746572207468616e207a65726f0000000000000000000000000000000000602082015250565b5f610844602f836107da565b915061084f826107ea565b604082019050919050565b5f6020820190508181035f83015261087181610838565b9050919050565b7f4e487b71000000000000000000000000000000000000000000000000000000005f52601160045260245ffd5b5f6108af826106ae565b91506108ba836106ae565b9250828201905067ffffffffffffffff8111156108da576108d9610878565b5b92915050565b7f54686520616d6f756e7420746f207472616e73666572206d75737420626520675f8201527f726561746572207468616e207a65726f00000000000000000000000000000000602082015250565b5f61093a6030836107da565b9150610945826108e0565b604082019050919050565b5f6020820190508181035f8301526109678161092e565b9050919050565b7f4e6f7420656e6f7567682062616c616e636500000000000000000000000000005f82015250565b5f6109a26012836107da565b91506109ad8261096e565b602082019050919050565b5f6020820190508181035f8301526109cf81610996565b9050919050565b7f496e76616c69642064657374696e6174696f6e000000000000000000000000005f82015250565b5f610a0a6013836107da565b9150610a15826109d6565b602082019050919050565b5f6020820190508181035f830152610a37816109fe565b9050919050565b5f610a48826106ae565b9150610a53836106ae565b9250828203905067ffffffffffffffff811115610a7357610a72610878565b5b92915050565b7f54686520616d6f756e7420746f207769746864726177206d75737420626520675f8201527f726561746572207468616e207a65726f00000000000000000000000000000000602082015250565b5f610ad36030836107da565b9150610ade82610a79565b604082019050919050565b5f6020820190508181035f830152610b0081610ac7565b905091905056fea2646970667358221220fa92473d2188e53e2addfb9c4f06438f4435c5ae8aaed55592142567f4c5636a64736f6c634300081e0033","linkReferences":{}},"methodIdentifiers":{"deposit(uint64)":"13765838","getBalance()":"12065fe0","transfer(address,uint64)":"5d359fbd","withdraw(uint64)":"750f0acc"},"id":19}