{"abi":[{"type":"constructor","inputs":[],"stateMutability":"nonpayable"},{"type":"function","name":"addItem","inputs":[{"name":"name","type":"string","internalType":"string"},{"name":"price","type":"uint128","internalType":"uint128"},{"name":"quantity","type":"uint128","internalType":"uint128"}],"outputs":[],"stateMutability":"nonpayable"},{"type":"function","name":"getItemDetails","inputs":[{"name":"itemId","type":"uint256","internalType":"uint256"}],"outputs":[{"name":"price","type":"uint128","internalType":"uint128"},{"name":"quantity","type":"uint128","internalType":"uint128"},{"name":"available","type":"bool","internalType":"bool"}],"stateMutability":"view"},{"type":"function","name":"getItemName","inputs":[{"name":"itemId","type":"uint256","internalType":"uint256"}],"outputs":[{"name":"","type":"string","internalType":"string"}],"stateMutability":"view"},{"type":"function","name":"getNextItemId","inputs":[],"outputs":[{"name":"","type":"uint256","internalType":"uint256"}],"stateMutability":"view"},{"type":"function","name":"getTotalRevenue","inputs":[],"outputs":[{"name":"","type":"uint256","internalType":"uint256"}],"stateMutability":"view"},{"type":"function","name":"items","inputs":[{"name":"","type":"uint256","internalType":"uint256"}],"outputs":[{"name":"price","type":"uint128","internalType":"uint128"},{"name":"quantity","type":"uint128","internalType":"uint128"},{"name":"available","type":"bool","internalType":"bool"}],"stateMutability":"view"},{"type":"function","name":"owner","inputs":[],"outputs":[{"name":"","type":"address","internalType":"address"}],"stateMutability":"view"},{"type":"function","name":"packedData","inputs":[],"outputs":[{"name":"totalRevenue","type":"uint128","internalType":"uint128"},{"name":"nextItemId","type":"uint128","internalType":"uint128"}],"stateMutability":"view"},{"type":"function","name":"purchaseItem","inputs":[{"name":"itemId","type":"uint256","internalType":"uint256"},{"name":"quantity","type":"uint128","internalType":"uint128"}],"outputs":[],"stateMutability":"payable"},{"type":"function","name":"userPurchases","inputs":[{"name":"","type":"address","internalType":"address"},{"name":"","type":"uint256","internalType":"uint256"}],"outputs":[{"name":"","type":"uint256","internalType":"uint256"}],"stateMutability":"view"},{"type":"event","name":"ItemAdded","inputs":[{"name":"itemId","type":"uint256","indexed":true,"internalType":"uint256"},{"name":"price","type":"uint256","indexed":false,"internalType":"uint256"}],"anonymous":false},{"type":"event","name":"ItemPurchased","inputs":[{"name":"itemId","type":"uint256","indexed":true,"internalType":"uint256"},{"name":"buyer","type":"address","indexed":true,"internalType":"address"},{"name":"quantity","type":"uint256","indexed":false,"internalType":"uint256"}],"anonymous":false},{"type":"error","name":"InsufficientPayment","inputs":[]},{"type":"error","name":"InsufficientQuantity","inputs":[]},{"type":"error","name":"ItemNotAvailable","inputs":[]},{"type":"error","name":"NotOwner","inputs":[]}],"bytecode":{"object":"0x60a0604052348015600e575f5ffd5b503373ffffffffffffffffffffffffffffffffffffffff1660808173ffffffffffffffffffffffffffffffffffffffff16815250506080516113506100625f395f8181610750015261090501526113505ff3fe608060405260043610610090575f3560e01c8063957fae9611610058578063957fae961461016d578063bfb231d214610197578063cf2c0334146101d5578063d9561a9114610211578063d9c929c71461024d57610090565b806311061ade1461009457806373004ca0146100b057806377b43c08146100ee57806387257e3c146101185780638da5cb5b14610143575b5f5ffd5b6100ae60048036038101906100a99190610bf0565b610275565b005b3480156100bb575f5ffd5b506100d660048036038101906100d19190610c2e565b6105e6565b6040516100e593929190610c82565b60405180910390f35b3480156100f9575f5ffd5b506101026106ce565b60405161010f9190610cc6565b60405180910390f35b348015610123575f5ffd5b5061012c610707565b60405161013a929190610cdf565b60405180910390f35b34801561014e575f5ffd5b5061015761074e565b6040516101649190610d45565b60405180910390f35b348015610178575f5ffd5b50610181610772565b60405161018e9190610cc6565b60405180910390f35b3480156101a2575f5ffd5b506101bd60048036038101906101b89190610c2e565b6107aa565b6040516101cc93929190610c82565b60405180910390f35b3480156101e0575f5ffd5b506101fb60048036038101906101f69190610d88565b610811565b6040516102089190610cc6565b60405180910390f35b34801561021c575f5ffd5b5061023760048036038101906102329190610c2e565b61083c565b6040516102449190610e36565b60405180910390f35b348015610258575f5ffd5b50610273600480360381019061026e9190610eb7565b610903565b005b5f5f5f8481526020019081526020015f209050806001015f9054906101000a900460ff166102cf576040517ff071968400000000000000000000000000000000000000000000000000000000815260040160405180910390fd5b816fffffffffffffffffffffffffffffffff16815f0160109054906101000a90046fffffffffffffffffffffffffffffffff166fffffffffffffffffffffffffffffffff16101561034c576040517f91c24d8200000000000000000000000000000000000000000000000000000000815260040160405180910390fd5b5f826fffffffffffffffffffffffffffffffff16825f015f9054906101000a90046fffffffffffffffffffffffffffffffff166fffffffffffffffffffffffffffffffff1661039b9190610f55565b9050803410156103d7576040517fcd1c886700000000000000000000000000000000000000000000000000000000815260040160405180910390fd5b82825f0160108282829054906101000a90046fffffffffffffffffffffffffffffffff160392506101000a8154816fffffffffffffffffffffffffffffffff02191690836fffffffffffffffffffffffffffffffff1602179055505f825f0160109054906101000a90046fffffffffffffffffffffffffffffffff166fffffffffffffffffffffffffffffffff1603610486575f826001015f6101000a81548160ff0219169083151502179055505b60025f3373ffffffffffffffffffffffffffffffffffffffff1673ffffffffffffffffffffffffffffffffffffffff1681526020019081526020015f2084908060018154018082558091505060019003905f5260205f20015f90919091909150553460035f015f8282829054906101000a90046fffffffffffffffffffffffffffffffff160192506101000a8154816fffffffffffffffffffffffffffffffff02191690836fffffffffffffffffffffffffffffffff1602179055503373ffffffffffffffffffffffffffffffffffffffff16847f78a0660bbda86d17037943644187f6f1f73f2f20a3240bf4cf4a56c2a96bcf84856040516105899190610fcf565b60405180910390a3803411156105e0573373ffffffffffffffffffffffffffffffffffffffff166108fc82340390811502906040515f60405180830381858888f193505050501580156105de573d5f5f3e3d5ffd5b505b50505050565b5f5f5f5f5f5f8681526020019081526020015f206040518060600160405290815f82015f9054906101000a90046fffffffffffffffffffffffffffffffff166fffffffffffffffffffffffffffffffff166fffffffffffffffffffffffffffffffff1681526020015f820160109054906101000a90046fffffffffffffffffffffffffffffffff166fffffffffffffffffffffffffffffffff166fffffffffffffffffffffffffffffffff168152602001600182015f9054906101000a900460ff1615151515815250509050805f015181602001518260400151935093509350509193909250565b5f60035f0160109054906101000a90046fffffffffffffffffffffffffffffffff166fffffffffffffffffffffffffffffffff16905090565b6003805f015f9054906101000a90046fffffffffffffffffffffffffffffffff1690805f0160109054906101000a90046fffffffffffffffffffffffffffffffff16905082565b7f000000000000000000000000000000000000000000000000000000000000000081565b5f60035f015f9054906101000a90046fffffffffffffffffffffffffffffffff166fffffffffffffffffffffffffffffffff16905090565b5f602052805f5260405f205f91509050805f015f9054906101000a90046fffffffffffffffffffffffffffffffff1690805f0160109054906101000a90046fffffffffffffffffffffffffffffffff1690806001015f9054906101000a900460ff16905083565b6002602052815f5260405f20818154811061082a575f80fd5b905f5260205f20015f91509150505481565b606060015f836040516020016108529190611008565b6040516020818303038152906040528051906020012081526020019081526020015f2080546108809061104f565b80601f01602080910402602001604051908101604052809291908181526020018280546108ac9061104f565b80156108f75780601f106108ce576101008083540402835291602001916108f7565b820191905f5260205f20905b8154815290600101906020018083116108da57829003601f168201915b50505050509050919050565b7f000000000000000000000000000000000000000000000000000000000000000073ffffffffffffffffffffffffffffffffffffffff163373ffffffffffffffffffffffffffffffffffffffff1614610988576040517f30cd747100000000000000000000000000000000000000000000000000000000815260040160405180910390fd5b5f60035f0160109054906101000a90046fffffffffffffffffffffffffffffffff166fffffffffffffffffffffffffffffffff1690506040518060600160405280846fffffffffffffffffffffffffffffffff168152602001836fffffffffffffffffffffffffffffffff168152602001600115158152505f5f8381526020019081526020015f205f820151815f015f6101000a8154816fffffffffffffffffffffffffffffffff02191690836fffffffffffffffffffffffffffffffff1602179055506020820151815f0160106101000a8154816fffffffffffffffffffffffffffffffff02191690836fffffffffffffffffffffffffffffffff1602179055506040820151816001015f6101000a81548160ff021916908315150217905550905050848460015f84604051602001610ac29190611008565b6040516020818303038152906040528051906020012081526020019081526020015f209182610af292919061124d565b50807f6fb42fda7924e03e71725d1fdc5add8739165f9921d66d3156e390c752dd786384604051610b239190610fcf565b60405180910390a26001810160035f0160106101000a8154816fffffffffffffffffffffffffffffffff02191690836fffffffffffffffffffffffffffffffff1602179055505050505050565b5f5ffd5b5f5ffd5b5f819050919050565b610b8a81610b78565b8114610b94575f5ffd5b50565b5f81359050610ba581610b81565b92915050565b5f6fffffffffffffffffffffffffffffffff82169050919050565b610bcf81610bab565b8114610bd9575f5ffd5b50565b5f81359050610bea81610bc6565b92915050565b5f5f60408385031215610c0657610c05610b70565b5b5f610c1385828601610b97565b9250506020610c2485828601610bdc565b9150509250929050565b5f60208284031215610c4357610c42610b70565b5b5f610c5084828501610b97565b91505092915050565b610c6281610bab565b82525050565b5f8115159050919050565b610c7c81610c68565b82525050565b5f606082019050610c955f830186610c59565b610ca26020830185610c59565b610caf6040830184610c73565b949350505050565b610cc081610b78565b82525050565b5f602082019050610cd95f830184610cb7565b92915050565b5f604082019050610cf25f830185610c59565b610cff6020830184610c59565b9392505050565b5f73ffffffffffffffffffffffffffffffffffffffff82169050919050565b5f610d2f82610d06565b9050919050565b610d3f81610d25565b82525050565b5f602082019050610d585f830184610d36565b92915050565b610d6781610d25565b8114610d71575f5ffd5b50565b5f81359050610d8281610d5e565b92915050565b5f5f60408385031215610d9e57610d9d610b70565b5b5f610dab85828601610d74565b9250506020610dbc85828601610b97565b9150509250929050565b5f81519050919050565b5f82825260208201905092915050565b8281835e5f83830152505050565b5f601f19601f8301169050919050565b5f610e0882610dc6565b610e128185610dd0565b9350610e22818560208601610de0565b610e2b81610dee565b840191505092915050565b5f6020820190508181035f830152610e4e8184610dfe565b905092915050565b5f5ffd5b5f5ffd5b5f5ffd5b5f5f83601f840112610e7757610e76610e56565b5b8235905067ffffffffffffffff811115610e9457610e93610e5a565b5b602083019150836001820283011115610eb057610eaf610e5e565b5b9250929050565b5f5f5f5f60608587031215610ecf57610ece610b70565b5b5f85013567ffffffffffffffff811115610eec57610eeb610b74565b5b610ef887828801610e62565b94509450506020610f0b87828801610bdc565b9250506040610f1c87828801610bdc565b91505092959194509250565b7f4e487b71000000000000000000000000000000000000000000000000000000005f52601160045260245ffd5b5f610f5f82610b78565b9150610f6a83610b78565b9250828202610f7881610b78565b91508282048414831517610f8f57610f8e610f28565b5b5092915050565b5f819050919050565b5f610fb9610fb4610faf84610bab565b610f96565b610b78565b9050919050565b610fc981610f9f565b82525050565b5f602082019050610fe25f830184610fc0565b92915050565b5f819050919050565b611002610ffd82610b78565b610fe8565b82525050565b5f6110138284610ff1565b60208201915081905092915050565b7f4e487b71000000000000000000000000000000000000000000000000000000005f52602260045260245ffd5b5f600282049050600182168061106657607f821691505b60208210810361107957611078611022565b5b50919050565b5f82905092915050565b7f4e487b71000000000000000000000000000000000000000000000000000000005f52604160045260245ffd5b5f819050815f5260205f209050919050565b5f6020601f8301049050919050565b5f82821b905092915050565b5f600883026111127fffffffffffffffffffffffffffffffffffffffffffffffffffffffffffffffff826110d7565b61111c86836110d7565b95508019841693508086168417925050509392505050565b5f61114e61114961114484610b78565b610f96565b610b78565b9050919050565b5f819050919050565b61116783611134565b61117b61117382611155565b8484546110e3565b825550505050565b5f5f905090565b611192611183565b61119d81848461115e565b505050565b5b818110156111c0576111b55f8261118a565b6001810190506111a3565b5050565b601f821115611205576111d6816110b6565b6111df846110c8565b810160208510156111ee578190505b6112026111fa856110c8565b8301826111a2565b50505b505050565b5f82821c905092915050565b5f6112255f198460080261120a565b1980831691505092915050565b5f61123d8383611216565b9150826002028217905092915050565b611257838361107f565b67ffffffffffffffff8111156112705761126f611089565b5b61127a825461104f565b6112858282856111c4565b5f601f8311600181146112b2575f84156112a0578287013590505b6112aa8582611232565b865550611311565b601f1984166112c0866110b6565b5f5b828110156112e7578489013582556001820191506020850194506020810190506112c2565b868310156113045784890135611300601f891682611216565b8355505b6001600288020188555050505b5050505050505056fea2646970667358221220353864320c2d17b31d88bb08aa74351b8d25bd18d0982091b1959a7fe6332b4464736f6c634300081e0033","linkReferences":{}},"methodIdentifiers":{"addItem(string,uint128,uint128)":"d9c929c7","getItemDetails(uint256)":"73004ca0","getItemName(uint256)":"d9561a91","getNextItemId()":"77b43c08","getTotalRevenue()":"957fae96","items(uint256)":"bfb231d2","owner()":"8da5cb5b","packedData()":"87257e3c","purchaseItem(uint256,uint128)":"11061ade","userPurchases(address,uint256)":"cf2c0334"},"id":19}