{"abi":[{"type":"constructor","inputs":[],"stateMutability":"nonpayable"},{"type":"function","name":"addItem","inputs":[{"name":"name","type":"string","internalType":"string"},{"name":"price","type":"uint256","internalType":"uint256"},{"name":"quantity","type":"uint256","internalType":"uint256"}],"outputs":[],"stateMutability":"nonpayable"},{"type":"function","name":"getItemDetails","inputs":[{"name":"itemId","type":"uint256","internalType":"uint256"}],"outputs":[{"name":"","type":"tuple","internalType":"struct SimpleStore.Item","components":[{"name":"name","type":"string","internalType":"string"},{"name":"price","type":"uint256","internalType":"uint256"},{"name":"quantity","type":"uint256","internalType":"uint256"},{"name":"available","type":"bool","internalType":"bool"}]}],"stateMutability":"view"},{"type":"function","name":"getUserPurchases","inputs":[{"name":"user","type":"address","internalType":"address"}],"outputs":[{"name":"","type":"uint256[]","internalType":"uint256[]"}],"stateMutability":"view"},{"type":"function","name":"items","inputs":[{"name":"","type":"uint256","internalType":"uint256"}],"outputs":[{"name":"name","type":"string","internalType":"string"},{"name":"price","type":"uint256","internalType":"uint256"},{"name":"quantity","type":"uint256","internalType":"uint256"},{"name":"available","type":"bool","internalType":"bool"}],"stateMutability":"view"},{"type":"function","name":"nextItemId","inputs":[],"outputs":[{"name":"","type":"uint256","internalType":"uint256"}],"stateMutability":"view"},{"type":"function","name":"owner","inputs":[],"outputs":[{"name":"","type":"address","internalType":"address"}],"stateMutability":"view"},{"type":"function","name":"purchaseItem","inputs":[{"name":"itemId","type":"uint256","internalType":"uint256"},{"name":"quantity","type":"uint256","internalType":"uint256"}],"outputs":[],"stateMutability":"payable"},{"type":"function","name":"totalRevenue","inputs":[],"outputs":[{"name":"","type":"uint256","internalType":"uint256"}],"stateMutability":"view"},{"type":"function","name":"userPurchases","inputs":[{"name":"","type":"address","internalType":"address"},{"name":"","type":"uint256","internalType":"uint256"}],"outputs":[{"name":"","type":"uint256","internalType":"uint256"}],"stateMutability":"view"},{"type":"event","name":"ItemAdded","inputs":[{"name":"itemId","type":"uint256","indexed":true,"internalType":"uint256"},{"name":"name","type":"string","indexed":false,"internalType":"string"},{"name":"price","type":"uint256","indexed":false,"internalType":"uint256"}],"anonymous":false},{"type":"event","name":"ItemPurchased","inputs":[{"name":"itemId","type":"uint256","indexed":true,"internalType":"uint256"},{"name":"buyer","type":"address","indexed":true,"internalType":"address"},{"name":"quantity","type":"uint256","indexed":false,"internalType":"uint256"}],"anonymous":false}],"bytecode":{"object":"0x6080604052348015600e575f5ffd5b503360035f6101000a81548173ffffffffffffffffffffffffffffffffffffffff021916908373ffffffffffffffffffffffffffffffffffffffff1602179055506114a48061005c5f395ff3fe608060405260043610610085575f3560e01c8063bfb231d211610058578063bfb231d214610143578063c6e5d8f614610182578063cf2c0334146101be578063d5e6c333146101fa578063e06756981461022257610085565b80636a8689741461008957806373004ca0146100b35780638da5cb5b146100ef578063bf2d9e0b14610119575b5f5ffd5b348015610094575f5ffd5b5061009d61023e565b6040516100aa91906108f7565b60405180910390f35b3480156100be575f5ffd5b506100d960048036038101906100d4919061094b565b610244565b6040516100e69190610a6f565b60405180910390f35b3480156100fa575f5ffd5b5061010361032b565b6040516101109190610ace565b60405180910390f35b348015610124575f5ffd5b5061012d610350565b60405161013a91906108f7565b60405180910390f35b34801561014e575f5ffd5b506101696004803603810190610164919061094b565b610356565b6040516101799493929190610b3e565b60405180910390f35b34801561018d575f5ffd5b506101a860048036038101906101a39190610bb2565b610413565b6040516101b59190610c85565b60405180910390f35b3480156101c9575f5ffd5b506101e460048036038101906101df9190610ca5565b6104a6565b6040516101f191906108f7565b60405180910390f35b348015610205575f5ffd5b50610220600480360381019061021b9190610e0f565b6104d1565b005b61023c60048036038101906102379190610e7b565b610638565b005b60025481565b61024c6108b8565b5f5f8381526020019081526020015f206040518060800160405290815f8201805461027690610ee6565b80601f01602080910402602001604051908101604052809291908181526020018280546102a290610ee6565b80156102ed5780601f106102c4576101008083540402835291602001916102ed565b820191905f5260205f20905b8154815290600101906020018083116102d057829003601f168201915b505050505081526020016001820154815260200160028201548152602001600382015f9054906101000a900460ff1615151515815250509050919050565b60035f9054906101000a900473ffffffffffffffffffffffffffffffffffffffff1681565b60045481565b5f602052805f5260405f205f91509050805f01805461037490610ee6565b80601f01602080910402602001604051908101604052809291908181526020018280546103a090610ee6565b80156103eb5780601f106103c2576101008083540402835291602001916103eb565b820191905f5260205f20905b8154815290600101906020018083116103ce57829003601f168201915b505050505090806001015490806002015490806003015f9054906101000a900460ff16905084565b606060015f8373ffffffffffffffffffffffffffffffffffffffff1673ffffffffffffffffffffffffffffffffffffffff1681526020019081526020015f2080548060200260200160405190810160405280929190818152602001828054801561049a57602002820191905f5260205f20905b815481526020019060010190808311610486575b50505050509050919050565b6001602052815f5260405f2081815481106104bf575f80fd5b905f5260205f20015f91509150505481565b60035f9054906101000a900473ffffffffffffffffffffffffffffffffffffffff1673ffffffffffffffffffffffffffffffffffffffff163373ffffffffffffffffffffffffffffffffffffffff1614610560576040517f08c379a000000000000000000000000000000000000000000000000000000000815260040161055790610f60565b60405180910390fd5b6040518060800160405280848152602001838152602001828152602001600115158152505f5f60025481526020019081526020015f205f820151815f0190816105a9919061111e565b5060208201518160010155604082015181600201556060820151816003015f6101000a81548160ff0219169083151502179055509050506002547f0444434676a57f70f8479401c50fb4add3e31052f88f4b35e155b7759e5968e584846040516106149291906111ed565b60405180910390a260025f81548092919061062e90611248565b9190505550505050565b5f5f5f8481526020019081526020015f209050806003015f9054906101000a900460ff1661069b576040517f08c379a0000000000000000000000000000000000000000000000000000000008152600401610692906112d9565b60405180910390fd5b81816002015410156106e2576040517f08c379a00000000000000000000000000000000000000000000000000000000081526004016106d990611341565b60405180910390fd5b8181600101546106f2919061135f565b341015610734576040517f08c379a000000000000000000000000000000000000000000000000000000000815260040161072b906113ea565b60405180910390fd5b81816002015f8282546107479190611408565b925050819055505f816002015403610775575f816003015f6101000a81548160ff0219169083151502179055505b60015f3373ffffffffffffffffffffffffffffffffffffffff1673ffffffffffffffffffffffffffffffffffffffff1681526020019081526020015f2083908060018154018082558091505060019003905f5260205f20015f90919091909150553460045f8282546107e7919061143b565b925050819055503373ffffffffffffffffffffffffffffffffffffffff16837f78a0660bbda86d17037943644187f6f1f73f2f20a3240bf4cf4a56c2a96bcf848460405161083591906108f7565b60405180910390a381816001015461084d919061135f565b3411156108b3573373ffffffffffffffffffffffffffffffffffffffff166108fc83836001015461087e919061135f565b346108899190611408565b90811502906040515f60405180830381858888f193505050501580156108b1573d5f5f3e3d5ffd5b505b505050565b6040518060800160405280606081526020015f81526020015f81526020015f151581525090565b5f819050919050565b6108f1816108df565b82525050565b5f60208201905061090a5f8301846108e8565b92915050565b5f604051905090565b5f5ffd5b5f5ffd5b61092a816108df565b8114610934575f5ffd5b50565b5f8135905061094581610921565b92915050565b5f602082840312156109605761095f610919565b5b5f61096d84828501610937565b91505092915050565b5f81519050919050565b5f82825260208201905092915050565b8281835e5f83830152505050565b5f601f19601f8301169050919050565b5f6109b882610976565b6109c28185610980565b93506109d2818560208601610990565b6109db8161099e565b840191505092915050565b6109ef816108df565b82525050565b5f8115159050919050565b610a09816109f5565b82525050565b5f608083015f8301518482035f860152610a2982826109ae565b9150506020830151610a3e60208601826109e6565b506040830151610a5160408601826109e6565b506060830151610a646060860182610a00565b508091505092915050565b5f6020820190508181035f830152610a878184610a0f565b905092915050565b5f73ffffffffffffffffffffffffffffffffffffffff82169050919050565b5f610ab882610a8f565b9050919050565b610ac881610aae565b82525050565b5f602082019050610ae15f830184610abf565b92915050565b5f82825260208201905092915050565b5f610b0182610976565b610b0b8185610ae7565b9350610b1b818560208601610990565b610b248161099e565b840191505092915050565b610b38816109f5565b82525050565b5f6080820190508181035f830152610b568187610af7565b9050610b6560208301866108e8565b610b7260408301856108e8565b610b7f6060830184610b2f565b95945050505050565b610b9181610aae565b8114610b9b575f5ffd5b50565b5f81359050610bac81610b88565b92915050565b5f60208284031215610bc757610bc6610919565b5b5f610bd484828501610b9e565b91505092915050565b5f81519050919050565b5f82825260208201905092915050565b5f819050602082019050919050565b5f610c1183836109e6565b60208301905092915050565b5f602082019050919050565b5f610c3382610bdd565b610c3d8185610be7565b9350610c4883610bf7565b805f5b83811015610c78578151610c5f8882610c06565b9750610c6a83610c1d565b925050600181019050610c4b565b5085935050505092915050565b5f6020820190508181035f830152610c9d8184610c29565b905092915050565b5f5f60408385031215610cbb57610cba610919565b5b5f610cc885828601610b9e565b9250506020610cd985828601610937565b9150509250929050565b5f5ffd5b5f5ffd5b7f4e487b71000000000000000000000000000000000000000000000000000000005f52604160045260245ffd5b610d218261099e565b810181811067ffffffffffffffff82111715610d4057610d3f610ceb565b5b80604052505050565b5f610d52610910565b9050610d5e8282610d18565b919050565b5f67ffffffffffffffff821115610d7d57610d7c610ceb565b5b610d868261099e565b9050602081019050919050565b828183375f83830152505050565b5f610db3610dae84610d63565b610d49565b905082815260208101848484011115610dcf57610dce610ce7565b5b610dda848285610d93565b509392505050565b5f82601f830112610df657610df5610ce3565b5b8135610e06848260208601610da1565b91505092915050565b5f5f5f60608486031215610e2657610e25610919565b5b5f84013567ffffffffffffffff811115610e4357610e4261091d565b5b610e4f86828701610de2565b9350506020610e6086828701610937565b9250506040610e7186828701610937565b9150509250925092565b5f5f60408385031215610e9157610e90610919565b5b5f610e9e85828601610937565b9250506020610eaf85828601610937565b9150509250929050565b7f4e487b71000000000000000000000000000000000000000000000000000000005f52602260045260245ffd5b5f6002820490506001821680610efd57607f821691505b602082108103610f1057610f0f610eb9565b5b50919050565b7f4e6f7420746865206f776e6572000000000000000000000000000000000000005f82015250565b5f610f4a600d83610ae7565b9150610f5582610f16565b602082019050919050565b5f6020820190508181035f830152610f7781610f3e565b9050919050565b5f819050815f5260205f209050919050565b5f6020601f8301049050919050565b5f82821b905092915050565b5f60088302610fda7fffffffffffffffffffffffffffffffffffffffffffffffffffffffffffffffff82610f9f565b610fe48683610f9f565b95508019841693508086168417925050509392505050565b5f819050919050565b5f61101f61101a611015846108df565b610ffc565b6108df565b9050919050565b5f819050919050565b61103883611005565b61104c61104482611026565b848454610fab565b825550505050565b5f5f905090565b611063611054565b61106e81848461102f565b505050565b5b81811015611091576110865f8261105b565b600181019050611074565b5050565b601f8211156110d6576110a781610f7e565b6110b084610f90565b810160208510156110bf578190505b6110d36110cb85610f90565b830182611073565b50505b505050565b5f82821c905092915050565b5f6110f65f19846008026110db565b1980831691505092915050565b5f61110e83836110e7565b9150826002028217905092915050565b61112782610976565b67ffffffffffffffff8111156111405761113f610ceb565b5b61114a8254610ee6565b611155828285611095565b5f60209050601f831160018114611186575f8415611174578287015190505b61117e8582611103565b8655506111e5565b601f19841661119486610f7e565b5f5b828110156111bb57848901518255600182019150602085019450602081019050611196565b868310156111d857848901516111d4601f8916826110e7565b8355505b6001600288020188555050505b505050505050565b5f6040820190508181035f8301526112058185610af7565b905061121460208301846108e8565b9392505050565b7f4e487b71000000000000000000000000000000000000000000000000000000005f52601160045260245ffd5b5f611252826108df565b91507fffffffffffffffffffffffffffffffffffffffffffffffffffffffffffffffff82036112845761128361121b565b5b600182019050919050565b7f4974656d206e6f7420617661696c61626c6500000000000000000000000000005f82015250565b5f6112c3601283610ae7565b91506112ce8261128f565b602082019050919050565b5f6020820190508181035f8301526112f0816112b7565b9050919050565b7f496e73756666696369656e74207175616e7469747900000000000000000000005f82015250565b5f61132b601583610ae7565b9150611336826112f7565b602082019050919050565b5f6020820190508181035f8301526113588161131f565b9050919050565b5f611369826108df565b9150611374836108df565b9250828202611382816108df565b915082820484148315176113995761139861121b565b5b5092915050565b7f496e73756666696369656e74207061796d656e740000000000000000000000005f82015250565b5f6113d4601483610ae7565b91506113df826113a0565b602082019050919050565b5f6020820190508181035f830152611401816113c8565b9050919050565b5f611412826108df565b915061141d836108df565b92508282039050818111156114355761143461121b565b5b92915050565b5f611445826108df565b9150611450836108df565b92508282019050808211156114685761146761121b565b5b9291505056fea2646970667358221220ad69f8dcd1b6e384d8ea6a75bf82b6aad49d9ed70d297d3640437e27335378b664736f6c634300081e0033","linkReferences":{}},"methodIdentifiers":{"addItem(string,uint256,uint256)":"d5e6c333","getItemDetails(uint256)":"73004ca0","getUserPurchases(address)":"c6e5d8f6","items(uint256)":"bfb231d2","nextItemId()":"6a868974","owner()":"8da5cb5b","purchaseItem(uint256,uint256)":"e0675698","totalRevenue()":"bf2d9e0b","userPurchases(address,uint256)":"cf2c0334"},"id":20}