{"abi":[{"type":"function","name":"amt","inputs":[],"outputs":[{"name":"","type":"uint256","internalType":"uint256"}],"stateMutability":"view"},{"type":"function","name":"deposit","inputs":[{"name":"_amt","type":"uint256","internalType":"uint256"}],"outputs":[{"name":"","type":"uint256","internalType":"uint256"}],"stateMutability":"nonpayable"},{"type":"function","name":"withdraw","inputs":[{"name":"_amt","type":"uint256","internalType":"uint256"}],"outputs":[{"name":"","type":"uint256","internalType":"uint256"}],"stateMutability":"nonpayable"}],"bytecode":{"object":"0x6080604052348015600e575f5ffd5b506102668061001c5f395ff3fe608060405234801561000f575f5ffd5b506004361061003f575f3560e01c806316eab96b146100435780632e1a7d4d14610061578063b6b55f2514610091575b5f5ffd5b61004b6100c1565b604051610058919061012b565b60405180910390f35b61007b60048036038101906100769190610172565b6100c6565b604051610088919061012b565b60405180910390f35b6100ab60048036038101906100a69190610172565b6100f3565b6040516100b8919061012b565b60405180910390f35b5f5481565b5f815f5410156100d4575f5ffd5b815f5f8282546100e491906101ca565b92505081905550819050919050565b5f815f5f82825461010491906101fd565b92505081905550819050919050565b5f819050919050565b61012581610113565b82525050565b5f60208201905061013e5f83018461011c565b92915050565b5f5ffd5b61015181610113565b811461015b575f5ffd5b50565b5f8135905061016c81610148565b92915050565b5f6020828403121561018757610186610144565b5b5f6101948482850161015e565b91505092915050565b7f4e487b71000000000000000000000000000000000000000000000000000000005f52601160045260245ffd5b5f6101d482610113565b91506101df83610113565b92508282039050818111156101f7576101f661019d565b5b92915050565b5f61020782610113565b915061021283610113565b925082820190508082111561022a5761022961019d565b5b9291505056fea26469706673582212206b260b67f5ef983dc243504f43a3b02e516def94bcee985a3333512d9e5e40a364736f6c634300081e0033","linkReferences":{}},"methodIdentifiers":{"amt()":"16eab96b","deposit(uint256)":"b6b55f25","withdraw(uint256)":"2e1a7d4d"},"id":19}