{"abi":[{"type":"function","name":"balances","inputs":[{"name":"","type":"address","internalType":"address"}],"outputs":[{"name":"","type":"uint256","internalType":"uint256"}],"stateMutability":"view"},{"type":"function","name":"deposit","inputs":[],"outputs":[],"stateMutability":"payable"},{"type":"function","name":"getBalance","inputs":[{"name":"_user","type":"address","internalType":"address"}],"outputs":[{"name":"","type":"uint256","internalType":"uint256"}],"stateMutability":"view"},{"type":"function","name":"totalDeposits","inputs":[],"outputs":[{"name":"","type":"uint256","internalType":"uint256"}],"stateMutability":"view"},{"type":"function","name":"withdraw","inputs":[{"name":"_amount","type":"uint256","internalType":"uint256"}],"outputs":[],"stateMutability":"nonpayable"}],"bytecode":{"object":"0x6080604052348015600e575f5ffd5b506107f48061001c5f395ff3fe608060405260043610610049575f3560e01c806327e235e31461004d5780632e1a7d4d146100895780637d882097146100b1578063d0e30db0146100db578063f8b2cb4f146100e5575b5f5ffd5b348015610058575f5ffd5b50610073600480360381019061006e9190610463565b610121565b60405161008091906104a6565b60405180910390f35b348015610094575f5ffd5b506100af60048036038101906100aa91906104e9565b610135565b005b3480156100bc575f5ffd5b506100c561030c565b6040516100d291906104a6565b60405180910390f35b6100e3610312565b005b3480156100f0575f5ffd5b5061010b60048036038101906101069190610463565b6103c0565b60405161011891906104a6565b60405180910390f35b5f602052805f5260405f205f915090505481565b5f8111610177576040517f08c379a000000000000000000000000000000000000000000000000000000000815260040161016e9061056e565b60405180910390fd5b805f5f3373ffffffffffffffffffffffffffffffffffffffff1673ffffffffffffffffffffffffffffffffffffffff1681526020019081526020015f205410156101f6576040517f08c379a00000000000000000000000000000000000000000000000000000000081526004016101ed906105d6565b60405180910390fd5b805f5f3373ffffffffffffffffffffffffffffffffffffffff1673ffffffffffffffffffffffffffffffffffffffff1681526020019081526020015f205f8282546102419190610621565b925050819055508060015f8282546102599190610621565b925050819055505f3373ffffffffffffffffffffffffffffffffffffffff168260405161028590610681565b5f6040518083038185875af1925050503d805f81146102bf576040519150601f19603f3d011682016040523d82523d5f602084013e6102c4565b606091505b5050905080610308576040517f08c379a00000000000000000000000000000000000000000000000000000000081526004016102ff906106df565b60405180910390fd5b5050565b60015481565b5f3411610354576040517f08c379a000000000000000000000000000000000000000000000000000000000815260040161034b9061076d565b60405180910390fd5b345f5f3373ffffffffffffffffffffffffffffffffffffffff1673ffffffffffffffffffffffffffffffffffffffff1681526020019081526020015f205f82825461039f919061078b565b925050819055503460015f8282546103b7919061078b565b92505081905550565b5f5f5f8373ffffffffffffffffffffffffffffffffffffffff1673ffffffffffffffffffffffffffffffffffffffff1681526020019081526020015f20549050919050565b5f5ffd5b5f73ffffffffffffffffffffffffffffffffffffffff82169050919050565b5f61043282610409565b9050919050565b61044281610428565b811461044c575f5ffd5b50565b5f8135905061045d81610439565b92915050565b5f6020828403121561047857610477610405565b5b5f6104858482850161044f565b91505092915050565b5f819050919050565b6104a08161048e565b82525050565b5f6020820190506104b95f830184610497565b92915050565b6104c88161048e565b81146104d2575f5ffd5b50565b5f813590506104e3816104bf565b92915050565b5f602082840312156104fe576104fd610405565b5b5f61050b848285016104d5565b91505092915050565b5f82825260208201905092915050565b7f4d75737420776974686472617720736f6d657468696e670000000000000000005f82015250565b5f610558601783610514565b915061056382610524565b602082019050919050565b5f6020820190508181035f8301526105858161054c565b9050919050565b7f4e6f7420656e6f7567682062616c616e636521000000000000000000000000005f82015250565b5f6105c0601383610514565b91506105cb8261058c565b602082019050919050565b5f6020820190508181035f8301526105ed816105b4565b9050919050565b7f4e487b71000000000000000000000000000000000000000000000000000000005f52601160045260245ffd5b5f61062b8261048e565b91506106368361048e565b925082820390508181111561064e5761064d6105f4565b5b92915050565b5f81905092915050565b50565b5f61066c5f83610654565b91506106778261065e565b5f82019050919050565b5f61068b82610661565b9150819050919050565b7f5472616e73666572206661696c656400000000000000000000000000000000005f82015250565b5f6106c9600f83610514565b91506106d482610695565b602082019050919050565b5f6020820190508181035f8301526106f6816106bd565b9050919050565b7f4465706f73697420616d6f756e742073686f756c6420626520677265617465725f8201527f207468616e207a65726f21000000000000000000000000000000000000000000602082015250565b5f610757602b83610514565b9150610762826106fd565b604082019050919050565b5f6020820190508181035f8301526107848161074b565b9050919050565b5f6107958261048e565b91506107a08361048e565b92508282019050808211156107b8576107b76105f4565b5b9291505056fea2646970667358221220b1525f1aa35056d0302b03b8986e7401c8d8cc24f5c6c6da66e7baac8c14f02c64736f6c634300081e0033","linkReferences":{}},"methodIdentifiers":{"balances(address)":"27e235e3","deposit()":"d0e30db0","getBalance(address)":"f8b2cb4f","totalDeposits()":"7d882097","withdraw(uint256)":"2e1a7d4d"},"id":19}