{"abi":[{"type":"constructor","inputs":[{"name":"_duration","type":"uint256","internalType":"uint256"}],"stateMutability":"nonpayable"},{"type":"function","name":"bid","inputs":[{"name":"_index","type":"uint128","internalType":"uint128"},{"name":"_amount","type":"uint128","internalType":"uint128"}],"outputs":[],"stateMutability":"nonpayable"},{"type":"function","name":"duration","inputs":[],"outputs":[{"name":"","type":"uint256","internalType":"uint256"}],"stateMutability":"view"},{"type":"function","name":"endAuction","inputs":[],"outputs":[],"stateMutability":"nonpayable"},{"type":"function","name":"getItem","inputs":[{"name":"_index","type":"uint128","internalType":"uint128"}],"outputs":[{"name":"","type":"tuple","internalType":"struct Auction.AuctionedItem","components":[{"name":"description","type":"string","internalType":"string"},{"name":"startingPrice","type":"uint128","internalType":"uint128"},{"name":"auctionStart","type":"uint256","internalType":"uint256"},{"name":"auctionEnd","type":"uint256","internalType":"uint256"},{"name":"highestBidder","type":"address","internalType":"address"},{"name":"highestBid","type":"uint128","internalType":"uint128"},{"name":"isAvailable","type":"bool","internalType":"bool"}]}],"stateMutability":"view"},{"type":"function","name":"owner","inputs":[],"outputs":[{"name":"","type":"address","internalType":"address"}],"stateMutability":"view"},{"type":"function","name":"setItem","inputs":[{"name":"_description","type":"string","internalType":"string"},{"name":"_startingPrice","type":"uint128","internalType":"uint128"}],"outputs":[],"stateMutability":"nonpayable"},{"type":"event","name":"itemAdded","inputs":[{"name":"itemId","type":"uint128","indexed":false,"internalType":"uint128"},{"name":"startingPrice","type":"uint128","indexed":false,"internalType":"uint128"},{"name":"timeLeft","type":"uint256","indexed":false,"internalType":"uint256"}],"anonymous":false},{"type":"event","name":"itemGone","inputs":[{"name":"itemId","type":"uint128","indexed":true,"internalType":"uint128"},{"name":"winner","type":"address","indexed":true,"internalType":"address"},{"name":"finalPrice","type":"uint128","indexed":true,"internalType":"uint128"}],"anonymous":false},{"type":"event","name":"newSuccessfulBid","inputs":[{"name":"itemId","type":"uint128","indexed":false,"internalType":"uint128"},{"name":"bidder","type":"address","indexed":false,"internalType":"address"},{"name":"bidPrice","type":"uint128","indexed":false,"internalType":"uint128"},{"name":"timeLeft","type":"uint256","indexed":false,"internalType":"uint256"}],"anonymous":false},{"type":"event","name":"timeExtended","inputs":[{"name":"itemId","type":"uint128","indexed":false,"internalType":"uint128"},{"name":"newTimeLeft","type":"uint256","indexed":false,"internalType":"uint256"}],"anonymous":false}],"bytecode":{"object":"0x6080604052348015600e575f5ffd5b50604051611a2c380380611a2c8339818101604052810190602e919060ab565b335f5f6101000a81548173ffffffffffffffffffffffffffffffffffffffff021916908373ffffffffffffffffffffffffffffffffffffffff160217905550806001819055505060d1565b5f5ffd5b5f819050919050565b608d81607d565b81146096575f5ffd5b50565b5f8151905060a5816086565b92915050565b5f6020828403121560bd5760bc6079565b5b5f60c8848285016099565b91505092915050565b61194e806100de5f395ff3fe608060405234801561000f575f5ffd5b5060043610610060575f3560e01c80630fb5a6b4146100645780633c49630c146100825780633e9c2331146100b25780638da5cb5b146100ce578063dc22283b146100ec578063fe67a54b14610108575b5f5ffd5b61006c610112565b6040516100799190610dc4565b60405180910390f35b61009c60048036038101906100979190610e33565b610118565b6040516100a99190610fde565b60405180910390f35b6100cc60048036038101906100c7919061112a565b610362565b005b6100d66105c7565b6040516100e39190611193565b60405180910390f35b610106600480360381019061010191906111ac565b6105eb565b005b610110610b2c565b005b60015481565b610120610d39565b600280549050826fffffffffffffffffffffffffffffffff1610610179576040517f08c379a000000000000000000000000000000000000000000000000000000000815260040161017090611244565b60405180910390fd5b6002826fffffffffffffffffffffffffffffffff168154811061019f5761019e611262565b5b905f5260205f2090600602016040518060e00160405290815f820180546101c5906112bc565b80601f01602080910402602001604051908101604052809291908181526020018280546101f1906112bc565b801561023c5780601f106102135761010080835404028352916020019161023c565b820191905f5260205f20905b81548152906001019060200180831161021f57829003601f168201915b50505050508152602001600182015f9054906101000a90046fffffffffffffffffffffffffffffffff166fffffffffffffffffffffffffffffffff166fffffffffffffffffffffffffffffffff1681526020016002820154815260200160038201548152602001600482015f9054906101000a900473ffffffffffffffffffffffffffffffffffffffff1673ffffffffffffffffffffffffffffffffffffffff1673ffffffffffffffffffffffffffffffffffffffff168152602001600582015f9054906101000a90046fffffffffffffffffffffffffffffffff166fffffffffffffffffffffffffffffffff166fffffffffffffffffffffffffffffffff1681526020016005820160109054906101000a900460ff1615151515815250509050919050565b5f5f9054906101000a900473ffffffffffffffffffffffffffffffffffffffff1673ffffffffffffffffffffffffffffffffffffffff163373ffffffffffffffffffffffffffffffffffffffff16146103b9575f5ffd5b5f816fffffffffffffffffffffffffffffffff161161040d576040517f08c379a00000000000000000000000000000000000000000000000000000000081526004016104049061135c565b60405180910390fd5b5f6040518060e00160405280848152602001836fffffffffffffffffffffffffffffffff1681526020014281526020016001544261044b91906113a7565b81526020015f73ffffffffffffffffffffffffffffffffffffffff1681526020015f6fffffffffffffffffffffffffffffffff168152602001600115158152509050600281908060018154018082558091505060019003905f5260205f2090600602015f909190919091505f820151815f0190816104c9919061157a565b506020820151816001015f6101000a8154816fffffffffffffffffffffffffffffffff02191690836fffffffffffffffffffffffffffffffff16021790555060408201518160020155606082015181600301556080820151816004015f6101000a81548173ffffffffffffffffffffffffffffffffffffffff021916908373ffffffffffffffffffffffffffffffffffffffff16021790555060a0820151816005015f6101000a8154816fffffffffffffffffffffffffffffffff02191690836fffffffffffffffffffffffffffffffff16021790555060c08201518160050160106101000a81548160ff0219169083151502179055505050505050565b5f5f9054906101000a900473ffffffffffffffffffffffffffffffffffffffff1681565b600280549050826fffffffffffffffffffffffffffffffff1610610644576040517f08c379a000000000000000000000000000000000000000000000000000000000815260040161063b90611244565b60405180910390fd5b5f6002836fffffffffffffffffffffffffffffffff168154811061066b5761066a611262565b5b905f5260205f2090600602016040518060e00160405290815f82018054610691906112bc565b80601f01602080910402602001604051908101604052809291908181526020018280546106bd906112bc565b80156107085780601f106106df57610100808354040283529160200191610708565b820191905f5260205f20905b8154815290600101906020018083116106eb57829003601f168201915b50505050508152602001600182015f9054906101000a90046fffffffffffffffffffffffffffffffff166fffffffffffffffffffffffffffffffff166fffffffffffffffffffffffffffffffff1681526020016002820154815260200160038201548152602001600482015f9054906101000a900473ffffffffffffffffffffffffffffffffffffffff1673ffffffffffffffffffffffffffffffffffffffff1673ffffffffffffffffffffffffffffffffffffffff168152602001600582015f9054906101000a90046fffffffffffffffffffffffffffffffff166fffffffffffffffffffffffffffffffff166fffffffffffffffffffffffffffffffff1681526020016005820160109054906101000a900460ff16151515158152505090508060c0015161086d576040517f08c379a000000000000000000000000000000000000000000000000000000000815260040161086490611693565b60405180910390fd5b806060015142106108b3576040517f08c379a00000000000000000000000000000000000000000000000000000000081526004016108aa906116fb565b60405180910390fd5b5f8160a001516fffffffffffffffffffffffffffffffff16036109405780602001516fffffffffffffffffffffffffffffffff16826fffffffffffffffffffffffffffffffff16101561093b576040517f08c379a000000000000000000000000000000000000000000000000000000000815260040161093290611789565b60405180910390fd5b6109ab565b8060a001516fffffffffffffffffffffffffffffffff16826fffffffffffffffffffffffffffffffff16116109aa576040517f08c379a00000000000000000000000000000000000000000000000000000000081526004016109a190611817565b60405180910390fd5b5b5f6002846fffffffffffffffffffffffffffffffff16815481106109d2576109d1611262565b5b905f5260205f209060060201905082816005015f6101000a8154816fffffffffffffffffffffffffffffffff02191690836fffffffffffffffffffffffffffffffff16021790555033816004015f6101000a81548173ffffffffffffffffffffffffffffffffffffffff021916908373ffffffffffffffffffffffffffffffffffffffff1602179055507f8fc690ac7b2c0d643cf004144b564462d7670b850ac1b43d710b5fbaa0c04eae843385428560030154610a909190611835565b604051610aa09493929190611877565b60405180910390a161012c428260030154610abb9190611835565b1015610b265761012c816003015f828254610ad691906113a7565b925050819055507f2f578d9891edc63c9df40a9c60e5a85471753c6316b0105934903e4771c9a12884428360030154610b0f9190611835565b604051610b1d9291906118ba565b60405180910390a15b50505050565b5f5f9054906101000a900473ffffffffffffffffffffffffffffffffffffffff1673ffffffffffffffffffffffffffffffffffffffff163373ffffffffffffffffffffffffffffffffffffffff1614610b83575f5ffd5b5f5f90505b600280549050816fffffffffffffffffffffffffffffffff161015610d36575f6002826fffffffffffffffffffffffffffffffff1681548110610bce57610bcd611262565b5b905f5260205f20906006020190508060050160109054906101000a900460ff168015610bfe575080600301544210155b15610d22575f8160050160106101000a81548160ff0219169083151502179055505f73ffffffffffffffffffffffffffffffffffffffff16816004015f9054906101000a900473ffffffffffffffffffffffffffffffffffffffff1673ffffffffffffffffffffffffffffffffffffffff1614610d2157806005015f9054906101000a90046fffffffffffffffffffffffffffffffff166fffffffffffffffffffffffffffffffff16816004015f9054906101000a900473ffffffffffffffffffffffffffffffffffffffff1673ffffffffffffffffffffffffffffffffffffffff16836fffffffffffffffffffffffffffffffff167f2834fe7bc7e02d6226e1d099db297085bb42030ddb6b50adf0e3867e19f7d2d060405160405180910390a45b5b508080610d2e906118e1565b915050610b88565b50565b6040518060e00160405280606081526020015f6fffffffffffffffffffffffffffffffff1681526020015f81526020015f81526020015f73ffffffffffffffffffffffffffffffffffffffff1681526020015f6fffffffffffffffffffffffffffffffff1681526020015f151581525090565b5f819050919050565b610dbe81610dac565b82525050565b5f602082019050610dd75f830184610db5565b92915050565b5f604051905090565b5f5ffd5b5f5ffd5b5f6fffffffffffffffffffffffffffffffff82169050919050565b610e1281610dee565b8114610e1c575f5ffd5b50565b5f81359050610e2d81610e09565b92915050565b5f60208284031215610e4857610e47610de6565b5b5f610e5584828501610e1f565b91505092915050565b5f81519050919050565b5f82825260208201905092915050565b8281835e5f83830152505050565b5f601f19601f8301169050919050565b5f610ea082610e5e565b610eaa8185610e68565b9350610eba818560208601610e78565b610ec381610e86565b840191505092915050565b610ed781610dee565b82525050565b610ee681610dac565b82525050565b5f73ffffffffffffffffffffffffffffffffffffffff82169050919050565b5f610f1582610eec565b9050919050565b610f2581610f0b565b82525050565b5f8115159050919050565b610f3f81610f2b565b82525050565b5f60e083015f8301518482035f860152610f5f8282610e96565b9150506020830151610f746020860182610ece565b506040830151610f876040860182610edd565b506060830151610f9a6060860182610edd565b506080830151610fad6080860182610f1c565b5060a0830151610fc060a0860182610ece565b5060c0830151610fd360c0860182610f36565b508091505092915050565b5f6020820190508181035f830152610ff68184610f45565b905092915050565b5f5ffd5b5f5ffd5b7f4e487b71000000000000000000000000000000000000000000000000000000005f52604160045260245ffd5b61103c82610e86565b810181811067ffffffffffffffff8211171561105b5761105a611006565b5b80604052505050565b5f61106d610ddd565b90506110798282611033565b919050565b5f67ffffffffffffffff82111561109857611097611006565b5b6110a182610e86565b9050602081019050919050565b828183375f83830152505050565b5f6110ce6110c98461107e565b611064565b9050828152602081018484840111156110ea576110e9611002565b5b6110f58482856110ae565b509392505050565b5f82601f83011261111157611110610ffe565b5b81356111218482602086016110bc565b91505092915050565b5f5f604083850312156111405761113f610de6565b5b5f83013567ffffffffffffffff81111561115d5761115c610dea565b5b611169858286016110fd565b925050602061117a85828601610e1f565b9150509250929050565b61118d81610f0b565b82525050565b5f6020820190506111a65f830184611184565b92915050565b5f5f604083850312156111c2576111c1610de6565b5b5f6111cf85828601610e1f565b92505060206111e085828601610e1f565b9150509250929050565b5f82825260208201905092915050565b7f4974656d206e6f7420666f756e640000000000000000000000000000000000005f82015250565b5f61122e600e836111ea565b9150611239826111fa565b602082019050919050565b5f6020820190508181035f83015261125b81611222565b9050919050565b7f4e487b71000000000000000000000000000000000000000000000000000000005f52603260045260245ffd5b7f4e487b71000000000000000000000000000000000000000000000000000000005f52602260045260245ffd5b5f60028204905060018216806112d357607f821691505b6020821081036112e6576112e561128f565b5b50919050565b7f5374617274696e672070726963652073686f756c6420626520677265617465725f8201527f207468616e207a65726f00000000000000000000000000000000000000000000602082015250565b5f611346602a836111ea565b9150611351826112ec565b604082019050919050565b5f6020820190508181035f8301526113738161133a565b9050919050565b7f4e487b71000000000000000000000000000000000000000000000000000000005f52601160045260245ffd5b5f6113b182610dac565b91506113bc83610dac565b92508282019050808211156113d4576113d361137a565b5b92915050565b5f819050815f5260205f209050919050565b5f6020601f8301049050919050565b5f82821b905092915050565b5f600883026114367fffffffffffffffffffffffffffffffffffffffffffffffffffffffffffffffff826113fb565b61144086836113fb565b95508019841693508086168417925050509392505050565b5f819050919050565b5f61147b61147661147184610dac565b611458565b610dac565b9050919050565b5f819050919050565b61149483611461565b6114a86114a082611482565b848454611407565b825550505050565b5f5f905090565b6114bf6114b0565b6114ca81848461148b565b505050565b5b818110156114ed576114e25f826114b7565b6001810190506114d0565b5050565b601f82111561153257611503816113da565b61150c846113ec565b8101602085101561151b578190505b61152f611527856113ec565b8301826114cf565b50505b505050565b5f82821c905092915050565b5f6115525f1984600802611537565b1980831691505092915050565b5f61156a8383611543565b9150826002028217905092915050565b61158382610e5e565b67ffffffffffffffff81111561159c5761159b611006565b5b6115a682546112bc565b6115b18282856114f1565b5f60209050601f8311600181146115e2575f84156115d0578287015190505b6115da858261155f565b865550611641565b601f1984166115f0866113da565b5f5b82811015611617578489015182556001820191506020850194506020810190506115f2565b868310156116345784890151611630601f891682611543565b8355505b6001600288020188555050505b505050505050565b7f4974656d20616c726561647920676f6e650000000000000000000000000000005f82015250565b5f61167d6011836111ea565b915061168882611649565b602082019050919050565b5f6020820190508181035f8301526116aa81611671565b9050919050565b7f41756374696f6e20656e64656420666f722074686973206f626a6563740000005f82015250565b5f6116e5601d836111ea565b91506116f0826116b1565b602082019050919050565b5f6020820190508181035f830152611712816116d9565b9050919050565b7f426964206d757374207265616368206174206c656173742074686520737461725f8201527f74696e6720707269636500000000000000000000000000000000000000000000602082015250565b5f611773602a836111ea565b915061177e82611719565b604082019050919050565b5f6020820190508181035f8301526117a081611767565b9050919050565b7f43757272656e7420626964206973206e6f742062656174696e672068696768655f8201527f7374206269640000000000000000000000000000000000000000000000000000602082015250565b5f6118016026836111ea565b915061180c826117a7565b604082019050919050565b5f6020820190508181035f83015261182e816117f5565b9050919050565b5f61183f82610dac565b915061184a83610dac565b92508282039050818111156118625761186161137a565b5b92915050565b61187181610dee565b82525050565b5f60808201905061188a5f830187611868565b6118976020830186611184565b6118a46040830185611868565b6118b16060830184610db5565b95945050505050565b5f6040820190506118cd5f830185611868565b6118da6020830184610db5565b9392505050565b5f6118eb82610dee565b91506fffffffffffffffffffffffffffffffff820361190d5761190c61137a565b5b60018201905091905056fea264697066735822122091e0dfd00d015574940e887eb977e007be8c2290f03fab69446ed4503085afac64736f6c634300081e0033","linkReferences":{}},"methodIdentifiers":{"bid(uint128,uint128)":"dc22283b","duration()":"0fb5a6b4","endAuction()":"fe67a54b","getItem(uint128)":"3c49630c","owner()":"8da5cb5b","setItem(string,uint128)":"3e9c2331"},"id":19}