{"abi":[{"type":"constructor","inputs":[],"stateMutability":"nonpayable"},{"type":"function","name":"addTransfer","inputs":[{"name":"recipient","type":"address","internalType":"address"},{"name":"description","type":"bytes32","internalType":"bytes32"},{"name":"amount","type":"uint128","internalType":"uint128"}],"outputs":[],"stateMutability":"nonpayable"},{"type":"function","name":"getTransfer","inputs":[{"name":"_requestedId","type":"uint128","internalType":"uint128"}],"outputs":[{"name":"","type":"tuple","internalType":"struct BatchTransfer.Transfer","components":[{"name":"recipient","type":"address","internalType":"address"},{"name":"description","type":"bytes32","internalType":"bytes32"},{"name":"amount","type":"uint128","internalType":"uint128"},{"name":"isProcessed","type":"bool","internalType":"bool"}]}],"stateMutability":"view"},{"type":"function","name":"nextTransferId","inputs":[],"outputs":[{"name":"","type":"uint128","internalType":"uint128"}],"stateMutability":"view"},{"type":"function","name":"owner","inputs":[],"outputs":[{"name":"","type":"address","internalType":"address"}],"stateMutability":"view"},{"type":"function","name":"processTransfer","inputs":[],"outputs":[],"stateMutability":"nonpayable"},{"type":"function","name":"transfers","inputs":[{"name":"","type":"uint256","internalType":"uint256"}],"outputs":[{"name":"recipient","type":"address","internalType":"address"},{"name":"description","type":"bytes32","internalType":"bytes32"},{"name":"amount","type":"uint128","internalType":"uint128"},{"name":"isProcessed","type":"bool","internalType":"bool"}],"stateMutability":"view"},{"type":"event","name":"TransferAdded","inputs":[{"name":"transferId","type":"uint128","indexed":true,"internalType":"uint128"},{"name":"recipient","type":"address","indexed":true,"internalType":"address"},{"name":"amount","type":"uint128","indexed":false,"internalType":"uint128"}],"anonymous":false},{"type":"event","name":"TransferExecuted","inputs":[{"name":"transferId","type":"uint128","indexed":true,"internalType":"uint128"},{"name":"recipient","type":"address","indexed":true,"internalType":"address"},{"name":"amount","type":"uint128","indexed":false,"internalType":"uint128"}],"anonymous":false},{"type":"error","name":"AmountMustBeGreaterThanZero","inputs":[]},{"type":"error","name":"InvalidRecipientAddress","inputs":[]},{"type":"error","name":"NotEnoughBalance","inputs":[]},{"type":"error","name":"NotOwner","inputs":[]},{"type":"error","name":"TransferAlreadyProcessed","inputs":[]},{"type":"error","name":"TransferDoesNotExist","inputs":[]}],"bytecode":{"object":"0x60a0604052348015600e575f5ffd5b503373ffffffffffffffffffffffffffffffffffffffff1660808173ffffffffffffffffffffffffffffffffffffffff1681525050608051610e376100695f395f818161012b0152818161061501526106db0152610e375ff3fe608060405234801561000f575f5ffd5b5060043610610060575f3560e01c80635da70bb9146100645780637b3b23821461006e5780638da5cb5b1461009e5780639377d711146100bc578063b85b381b146100ef578063db3cd4301461010d575b5f5ffd5b61006c610129565b005b61008860048036038101906100839190610aa6565b61048c565b6040516100959190610ba4565b60405180910390f35b6100a6610613565b6040516100b39190610bcc565b60405180910390f35b6100d660048036038101906100d19190610c18565b610637565b6040516100e69493929190610c70565b60405180910390f35b6100f76106b8565b6040516101049190610cb3565b60405180910390f35b61012760048036038101906101229190610d20565b6106d9565b005b7f000000000000000000000000000000000000000000000000000000000000000073ffffffffffffffffffffffffffffffffffffffff163373ffffffffffffffffffffffffffffffffffffffff16146101ae576040517f30cd747100000000000000000000000000000000000000000000000000000000815260040160405180910390fd5b5f5f90505b5f80549050816fffffffffffffffffffffffffffffffff161015610489575f5f826fffffffffffffffffffffffffffffffff16815481106101f7576101f6610d70565b5b905f5260205f2090600302016040518060800160405290815f82015f9054906101000a900473ffffffffffffffffffffffffffffffffffffffff1673ffffffffffffffffffffffffffffffffffffffff1673ffffffffffffffffffffffffffffffffffffffff16815260200160018201548152602001600282015f9054906101000a90046fffffffffffffffffffffffffffffffff166fffffffffffffffffffffffffffffffff166fffffffffffffffffffffffffffffffff1681526020016002820160109054906101000a900460ff161515151581525050905080604001516fffffffffffffffffffffffffffffffff16471015610322576040517fad3a8b9e00000000000000000000000000000000000000000000000000000000815260040160405180910390fd5b5f815f01519050816060015115610365576040517f247ff34500000000000000000000000000000000000000000000000000000000815260040160405180910390fd5b8073ffffffffffffffffffffffffffffffffffffffff166108fc83604001516fffffffffffffffffffffffffffffffff1690811502906040515f60405180830381858888f193505050501580156103be573d5f5f3e3d5ffd5b5060015f846fffffffffffffffffffffffffffffffff16815481106103e6576103e5610d70565b5b905f5260205f20906003020160020160106101000a81548160ff021916908315150217905550815f015173ffffffffffffffffffffffffffffffffffffffff16836fffffffffffffffffffffffffffffffff167f0532b6e3dab9ec75e4dc724170494e59a1c659c88dda4b240ee7348523a76f94846040015160405161046c9190610cb3565b60405180910390a35050808061048190610dca565b9150506101b3565b50565b610494610a0f565b60015f9054906101000a90046fffffffffffffffffffffffffffffffff166fffffffffffffffffffffffffffffffff16826fffffffffffffffffffffffffffffffff161061050e576040517f4937821100000000000000000000000000000000000000000000000000000000815260040160405180910390fd5b5f826fffffffffffffffffffffffffffffffff168154811061053357610532610d70565b5b905f5260205f2090600302016040518060800160405290815f82015f9054906101000a900473ffffffffffffffffffffffffffffffffffffffff1673ffffffffffffffffffffffffffffffffffffffff1673ffffffffffffffffffffffffffffffffffffffff16815260200160018201548152602001600282015f9054906101000a90046fffffffffffffffffffffffffffffffff166fffffffffffffffffffffffffffffffff166fffffffffffffffffffffffffffffffff1681526020016002820160109054906101000a900460ff1615151515815250509050919050565b7f000000000000000000000000000000000000000000000000000000000000000081565b5f8181548110610645575f80fd5b905f5260205f2090600302015f91509050805f015f9054906101000a900473ffffffffffffffffffffffffffffffffffffffff1690806001015490806002015f9054906101000a90046fffffffffffffffffffffffffffffffff16908060020160109054906101000a900460ff16905084565b60015f9054906101000a90046fffffffffffffffffffffffffffffffff1681565b7f000000000000000000000000000000000000000000000000000000000000000073ffffffffffffffffffffffffffffffffffffffff163373ffffffffffffffffffffffffffffffffffffffff161461075e576040517f30cd747100000000000000000000000000000000000000000000000000000000815260040160405180910390fd5b5f73ffffffffffffffffffffffffffffffffffffffff168373ffffffffffffffffffffffffffffffffffffffff16036107c3576040517f44d99fea00000000000000000000000000000000000000000000000000000000815260040160405180910390fd5b5f816fffffffffffffffffffffffffffffffff160361080e576040517f5e85ae7300000000000000000000000000000000000000000000000000000000815260040160405180910390fd5b5f60405180608001604052808573ffffffffffffffffffffffffffffffffffffffff168152602001848152602001836fffffffffffffffffffffffffffffffff1681526020015f1515815250908060018154018082558091505060019003905f5260205f2090600302015f909190919091505f820151815f015f6101000a81548173ffffffffffffffffffffffffffffffffffffffff021916908373ffffffffffffffffffffffffffffffffffffffff160217905550602082015181600101556040820151816002015f6101000a8154816fffffffffffffffffffffffffffffffff02191690836fffffffffffffffffffffffffffffffff16021790555060608201518160020160106101000a81548160ff02191690831515021790555050508273ffffffffffffffffffffffffffffffffffffffff1660015f9054906101000a90046fffffffffffffffffffffffffffffffff166fffffffffffffffffffffffffffffffff167f7304d2ab9c66d38d7bf64159101400bba969f18d46cb46e09c746ce46450b3b4836040516109a49190610cb3565b60405180910390a360015f81819054906101000a90046fffffffffffffffffffffffffffffffff168092919060010191906101000a8154816fffffffffffffffffffffffffffffffff02191690836fffffffffffffffffffffffffffffffff16021790555050505050565b60405180608001604052805f73ffffffffffffffffffffffffffffffffffffffff1681526020015f81526020015f6fffffffffffffffffffffffffffffffff1681526020015f151581525090565b5f5ffd5b5f6fffffffffffffffffffffffffffffffff82169050919050565b610a8581610a61565b8114610a8f575f5ffd5b50565b5f81359050610aa081610a7c565b92915050565b5f60208284031215610abb57610aba610a5d565b5b5f610ac884828501610a92565b91505092915050565b5f73ffffffffffffffffffffffffffffffffffffffff82169050919050565b5f610afa82610ad1565b9050919050565b610b0a81610af0565b82525050565b5f819050919050565b610b2281610b10565b82525050565b610b3181610a61565b82525050565b5f8115159050919050565b610b4b81610b37565b82525050565b608082015f820151610b655f850182610b01565b506020820151610b786020850182610b19565b506040820151610b8b6040850182610b28565b506060820151610b9e6060850182610b42565b50505050565b5f608082019050610bb75f830184610b51565b92915050565b610bc681610af0565b82525050565b5f602082019050610bdf5f830184610bbd565b92915050565b5f819050919050565b610bf781610be5565b8114610c01575f5ffd5b50565b5f81359050610c1281610bee565b92915050565b5f60208284031215610c2d57610c2c610a5d565b5b5f610c3a84828501610c04565b91505092915050565b610c4c81610b10565b82525050565b610c5b81610a61565b82525050565b610c6a81610b37565b82525050565b5f608082019050610c835f830187610bbd565b610c906020830186610c43565b610c9d6040830185610c52565b610caa6060830184610c61565b95945050505050565b5f602082019050610cc65f830184610c52565b92915050565b610cd581610af0565b8114610cdf575f5ffd5b50565b5f81359050610cf081610ccc565b92915050565b610cff81610b10565b8114610d09575f5ffd5b50565b5f81359050610d1a81610cf6565b92915050565b5f5f5f60608486031215610d3757610d36610a5d565b5b5f610d4486828701610ce2565b9350506020610d5586828701610d0c565b9250506040610d6686828701610a92565b9150509250925092565b7f4e487b71000000000000000000000000000000000000000000000000000000005f52603260045260245ffd5b7f4e487b71000000000000000000000000000000000000000000000000000000005f52601160045260245ffd5b5f610dd482610a61565b91506fffffffffffffffffffffffffffffffff8203610df657610df5610d9d565b5b60018201905091905056fea2646970667358221220c44feb5fcd9e6eb64a4a758ddc1a7f367eb178e3923dc957a5c568b99f565f7464736f6c634300081e0033","linkReferences":{}},"methodIdentifiers":{"addTransfer(address,bytes32,uint128)":"db3cd430","getTransfer(uint128)":"7b3b2382","nextTransferId()":"b85b381b","owner()":"8da5cb5b","processTransfer()":"5da70bb9","transfers(uint256)":"9377d711"},"id":19}