{"abi":[{"type":"constructor","inputs":[],"stateMutability":"nonpayable"},{"type":"function","name":"addItem","inputs":[{"name":"_name","type":"string","internalType":"string"},{"name":"_price","type":"uint256","internalType":"uint256"},{"name":"_quantity","type":"uint256","internalType":"uint256"}],"outputs":[],"stateMutability":"nonpayable"},{"type":"function","name":"getItemDetails","inputs":[{"name":"itemId","type":"uint256","internalType":"uint256"}],"outputs":[{"name":"","type":"tuple","internalType":"struct SimpleShop.Item","components":[{"name":"name","type":"string","internalType":"string"},{"name":"price","type":"uint256","internalType":"uint256"},{"name":"quantity","type":"uint256","internalType":"uint256"},{"name":"available","type":"bool","internalType":"bool"}]}],"stateMutability":"view"},{"type":"function","name":"getUserPurchase","inputs":[{"name":"user","type":"address","internalType":"address"}],"outputs":[{"name":"","type":"uint256[]","internalType":"uint256[]"}],"stateMutability":"view"},{"type":"function","name":"items","inputs":[{"name":"","type":"uint256","internalType":"uint256"}],"outputs":[{"name":"name","type":"string","internalType":"string"},{"name":"price","type":"uint256","internalType":"uint256"},{"name":"quantity","type":"uint256","internalType":"uint256"},{"name":"available","type":"bool","internalType":"bool"}],"stateMutability":"view"},{"type":"function","name":"nextItemId","inputs":[],"outputs":[{"name":"","type":"uint256","internalType":"uint256"}],"stateMutability":"view"},{"type":"function","name":"owner","inputs":[],"outputs":[{"name":"","type":"address","internalType":"address"}],"stateMutability":"view"},{"type":"function","name":"purchaseItem","inputs":[{"name":"itemId","type":"uint256","internalType":"uint256"},{"name":"quantity","type":"uint256","internalType":"uint256"}],"outputs":[],"stateMutability":"payable"},{"type":"function","name":"totalRevenue","inputs":[],"outputs":[{"name":"","type":"uint256","internalType":"uint256"}],"stateMutability":"view"},{"type":"function","name":"userPurchase","inputs":[{"name":"","type":"address","internalType":"address"},{"name":"","type":"uint256","internalType":"uint256"}],"outputs":[{"name":"","type":"uint256","internalType":"uint256"}],"stateMutability":"view"}],"bytecode":{"object":"0x6080604052348015600e575f5ffd5b503360035f6101000a81548173ffffffffffffffffffffffffffffffffffffffff021916908373ffffffffffffffffffffffffffffffffffffffff1602179055506113eb8061005c5f395ff3fe608060405260043610610085575f3560e01c8063bda235da11610058578063bda235da14610155578063bf2d9e0b14610191578063bfb231d2146101bb578063d5e6c333146101fa578063e06756981461022257610085565b80636038d0cf146100895780636a868974146100c557806373004ca0146100ef5780638da5cb5b1461012b575b5f5ffd5b348015610094575f5ffd5b506100af60048036038101906100aa91906108f2565b61023e565b6040516100bc919061093f565b60405180910390f35b3480156100d0575f5ffd5b506100d9610269565b6040516100e6919061093f565b60405180910390f35b3480156100fa575f5ffd5b5061011560048036038101906101109190610958565b61026e565b6040516101229190610a7c565b60405180910390f35b348015610136575f5ffd5b5061013f610356565b60405161014c9190610aab565b60405180910390f35b348015610160575f5ffd5b5061017b60048036038101906101769190610ac4565b61037b565b6040516101889190610b97565b60405180910390f35b34801561019c575f5ffd5b506101a561040e565b6040516101b2919061093f565b60405180910390f35b3480156101c6575f5ffd5b506101e160048036038101906101dc9190610958565b610414565b6040516101f19493929190610c0e565b60405180910390f35b348015610205575f5ffd5b50610220600480360381019061021b9190610d84565b6104d2565b005b61023c60048036038101906102379190610df0565b6105fc565b005b6002602052815f5260405f208181548110610257575f80fd5b905f5260205f20015f91509150505481565b5f5481565b61027661082d565b60015f8381526020019081526020015f206040518060800160405290815f820180546102a190610e5b565b80601f01602080910402602001604051908101604052809291908181526020018280546102cd90610e5b565b80156103185780601f106102ef57610100808354040283529160200191610318565b820191905f5260205f20905b8154815290600101906020018083116102fb57829003601f168201915b505050505081526020016001820154815260200160028201548152602001600382015f9054906101000a900460ff1615151515815250509050919050565b60035f9054906101000a900473ffffffffffffffffffffffffffffffffffffffff1681565b606060025f8373ffffffffffffffffffffffffffffffffffffffff1673ffffffffffffffffffffffffffffffffffffffff1681526020019081526020015f2080548060200260200160405190810160405280929190818152602001828054801561040257602002820191905f5260205f20905b8154815260200190600101908083116103ee575b50505050509050919050565b60045481565b6001602052805f5260405f205f91509050805f01805461043390610e5b565b80601f016020809104026020016040519081016040528092919081815260200182805461045f90610e5b565b80156104aa5780601f10610481576101008083540402835291602001916104aa565b820191905f5260205f20905b81548152906001019060200180831161048d57829003601f168201915b505050505090806001015490806002015490806003015f9054906101000a900460ff16905084565b60035f9054906101000a900473ffffffffffffffffffffffffffffffffffffffff1673ffffffffffffffffffffffffffffffffffffffff163373ffffffffffffffffffffffffffffffffffffffff1614610561576040517f08c379a000000000000000000000000000000000000000000000000000000000815260040161055890610ed5565b60405180910390fd5b60405180608001604052808481526020018381526020018281526020016001151581525060015f5f5481526020019081526020015f205f820151815f0190816105aa9190611093565b5060208201518160010155604082015181600201556060820151816003015f6101000a81548160ff0219169083151502179055509050505f5f8154809291906105f29061118f565b9190505550505050565b5f60015f8481526020019081526020015f209050806003015f9054906101000a900460ff16610660576040517f08c379a000000000000000000000000000000000000000000000000000000000815260040161065790611220565b60405180910390fd5b81816002015410156106a7576040517f08c379a000000000000000000000000000000000000000000000000000000000815260040161069e90611288565b60405180910390fd5b8181600101546106b791906112a6565b3410156106f9576040517f08c379a00000000000000000000000000000000000000000000000000000000081526004016106f090611331565b60405180910390fd5b81816002015f82825461070c919061134f565b925050819055505f81600201540361073a575f816003015f6101000a81548160ff0219169083151502179055505b60025f3373ffffffffffffffffffffffffffffffffffffffff1673ffffffffffffffffffffffffffffffffffffffff1681526020019081526020015f2083908060018154018082558091505060019003905f5260205f20015f90919091909150553460045f8282546107ac9190611382565b925050819055508181600101546107c391906112a6565b3410610828573373ffffffffffffffffffffffffffffffffffffffff166108fc8383600101546107f391906112a6565b346107fe919061134f565b90811502906040515f60405180830381858888f19350505050158015610826573d5f5f3e3d5ffd5b505b505050565b6040518060800160405280606081526020015f81526020015f81526020015f151581525090565b5f604051905090565b5f5ffd5b5f5ffd5b5f73ffffffffffffffffffffffffffffffffffffffff82169050919050565b5f61088e82610865565b9050919050565b61089e81610884565b81146108a8575f5ffd5b50565b5f813590506108b981610895565b92915050565b5f819050919050565b6108d1816108bf565b81146108db575f5ffd5b50565b5f813590506108ec816108c8565b92915050565b5f5f604083850312156109085761090761085d565b5b5f610915858286016108ab565b9250506020610926858286016108de565b9150509250929050565b610939816108bf565b82525050565b5f6020820190506109525f830184610930565b92915050565b5f6020828403121561096d5761096c61085d565b5b5f61097a848285016108de565b91505092915050565b5f81519050919050565b5f82825260208201905092915050565b8281835e5f83830152505050565b5f601f19601f8301169050919050565b5f6109c582610983565b6109cf818561098d565b93506109df81856020860161099d565b6109e8816109ab565b840191505092915050565b6109fc816108bf565b82525050565b5f8115159050919050565b610a1681610a02565b82525050565b5f608083015f8301518482035f860152610a3682826109bb565b9150506020830151610a4b60208601826109f3565b506040830151610a5e60408601826109f3565b506060830151610a716060860182610a0d565b508091505092915050565b5f6020820190508181035f830152610a948184610a1c565b905092915050565b610aa581610884565b82525050565b5f602082019050610abe5f830184610a9c565b92915050565b5f60208284031215610ad957610ad861085d565b5b5f610ae6848285016108ab565b91505092915050565b5f81519050919050565b5f82825260208201905092915050565b5f819050602082019050919050565b5f610b2383836109f3565b60208301905092915050565b5f602082019050919050565b5f610b4582610aef565b610b4f8185610af9565b9350610b5a83610b09565b805f5b83811015610b8a578151610b718882610b18565b9750610b7c83610b2f565b925050600181019050610b5d565b5085935050505092915050565b5f6020820190508181035f830152610baf8184610b3b565b905092915050565b5f82825260208201905092915050565b5f610bd182610983565b610bdb8185610bb7565b9350610beb81856020860161099d565b610bf4816109ab565b840191505092915050565b610c0881610a02565b82525050565b5f6080820190508181035f830152610c268187610bc7565b9050610c356020830186610930565b610c426040830185610930565b610c4f6060830184610bff565b95945050505050565b5f5ffd5b5f5ffd5b7f4e487b71000000000000000000000000000000000000000000000000000000005f52604160045260245ffd5b610c96826109ab565b810181811067ffffffffffffffff82111715610cb557610cb4610c60565b5b80604052505050565b5f610cc7610854565b9050610cd38282610c8d565b919050565b5f67ffffffffffffffff821115610cf257610cf1610c60565b5b610cfb826109ab565b9050602081019050919050565b828183375f83830152505050565b5f610d28610d2384610cd8565b610cbe565b905082815260208101848484011115610d4457610d43610c5c565b5b610d4f848285610d08565b509392505050565b5f82601f830112610d6b57610d6a610c58565b5b8135610d7b848260208601610d16565b91505092915050565b5f5f5f60608486031215610d9b57610d9a61085d565b5b5f84013567ffffffffffffffff811115610db857610db7610861565b5b610dc486828701610d57565b9350506020610dd5868287016108de565b9250506040610de6868287016108de565b9150509250925092565b5f5f60408385031215610e0657610e0561085d565b5b5f610e13858286016108de565b9250506020610e24858286016108de565b9150509250929050565b7f4e487b71000000000000000000000000000000000000000000000000000000005f52602260045260245ffd5b5f6002820490506001821680610e7257607f821691505b602082108103610e8557610e84610e2e565b5b50919050565b7f4e6f7420746865206f776e6572000000000000000000000000000000000000005f82015250565b5f610ebf600d83610bb7565b9150610eca82610e8b565b602082019050919050565b5f6020820190508181035f830152610eec81610eb3565b9050919050565b5f819050815f5260205f209050919050565b5f6020601f8301049050919050565b5f82821b905092915050565b5f60088302610f4f7fffffffffffffffffffffffffffffffffffffffffffffffffffffffffffffffff82610f14565b610f598683610f14565b95508019841693508086168417925050509392505050565b5f819050919050565b5f610f94610f8f610f8a846108bf565b610f71565b6108bf565b9050919050565b5f819050919050565b610fad83610f7a565b610fc1610fb982610f9b565b848454610f20565b825550505050565b5f5f905090565b610fd8610fc9565b610fe3818484610fa4565b505050565b5b8181101561100657610ffb5f82610fd0565b600181019050610fe9565b5050565b601f82111561104b5761101c81610ef3565b61102584610f05565b81016020851015611034578190505b61104861104085610f05565b830182610fe8565b50505b505050565b5f82821c905092915050565b5f61106b5f1984600802611050565b1980831691505092915050565b5f611083838361105c565b9150826002028217905092915050565b61109c82610983565b67ffffffffffffffff8111156110b5576110b4610c60565b5b6110bf8254610e5b565b6110ca82828561100a565b5f60209050601f8311600181146110fb575f84156110e9578287015190505b6110f38582611078565b86555061115a565b601f19841661110986610ef3565b5f5b828110156111305784890151825560018201915060208501945060208101905061110b565b8683101561114d5784890151611149601f89168261105c565b8355505b6001600288020188555050505b505050505050565b7f4e487b71000000000000000000000000000000000000000000000000000000005f52601160045260245ffd5b5f611199826108bf565b91507fffffffffffffffffffffffffffffffffffffffffffffffffffffffffffffffff82036111cb576111ca611162565b5b600182019050919050565b7f4974656d206e6f7420617661696c61626c6500000000000000000000000000005f82015250565b5f61120a601283610bb7565b9150611215826111d6565b602082019050919050565b5f6020820190508181035f830152611237816111fe565b9050919050565b7f4e6f7420656e6f756768206974656d7320617661696c61626c650000000000005f82015250565b5f611272601a83610bb7565b915061127d8261123e565b602082019050919050565b5f6020820190508181035f83015261129f81611266565b9050919050565b5f6112b0826108bf565b91506112bb836108bf565b92508282026112c9816108bf565b915082820484148315176112e0576112df611162565b5b5092915050565b7f506179206d6f72650000000000000000000000000000000000000000000000005f82015250565b5f61131b600883610bb7565b9150611326826112e7565b602082019050919050565b5f6020820190508181035f8301526113488161130f565b9050919050565b5f611359826108bf565b9150611364836108bf565b925082820390508181111561137c5761137b611162565b5b92915050565b5f61138c826108bf565b9150611397836108bf565b92508282019050808211156113af576113ae611162565b5b9291505056fea26469706673582212207a8336480229187d6bb45fec90ce689f1fb36051ea4029df911b0ca364202ce664736f6c634300081e0033","linkReferences":{}},"methodIdentifiers":{"addItem(string,uint256,uint256)":"d5e6c333","getItemDetails(uint256)":"73004ca0","getUserPurchase(address)":"bda235da","items(uint256)":"bfb231d2","nextItemId()":"6a868974","owner()":"8da5cb5b","purchaseItem(uint256,uint256)":"e0675698","totalRevenue()":"bf2d9e0b","userPurchase(address,uint256)":"6038d0cf"},"id":19}