{"abi":[{"type":"constructor","inputs":[{"name":"_tokenA","type":"address","internalType":"address"},{"name":"_tokenB","type":"address","internalType":"address"}],"stateMutability":"nonpayable"},{"type":"function","name":"swapAtoB","inputs":[{"name":"amount","type":"uint256","internalType":"uint256"}],"outputs":[],"stateMutability":"nonpayable"},{"type":"function","name":"swapBtoA","inputs":[{"name":"amount","type":"uint256","internalType":"uint256"}],"outputs":[],"stateMutability":"nonpayable"}],"bytecode":{"object":"0x608060405234801561000f575f5ffd5b50604051610f7c380380610f7c83398181016040528101906100319190610115565b815f5f6101000a81548173ffffffffffffffffffffffffffffffffffffffff021916908373ffffffffffffffffffffffffffffffffffffffff1602179055508060015f6101000a81548173ffffffffffffffffffffffffffffffffffffffff021916908373ffffffffffffffffffffffffffffffffffffffff1602179055505050610153565b5f5ffd5b5f73ffffffffffffffffffffffffffffffffffffffff82169050919050565b5f6100e4826100bb565b9050919050565b6100f4816100da565b81146100fe575f5ffd5b50565b5f8151905061010f816100eb565b92915050565b5f5f6040838503121561012b5761012a6100b7565b5b5f61013885828601610101565b925050602061014985828601610101565b9150509250929050565b610e1c806101605f395ff3fe608060405234801561000f575f5ffd5b5060043610610034575f3560e01c8063da0d673514610038578063e0441df014610054575b5f5ffd5b610052600480360381019061004d9190610809565b610070565b005b61006e60048036038101906100699190610809565b610421565b005b5f81116100b2576040517f08c379a00000000000000000000000000000000000000000000000000000000081526004016100a99061088e565b60405180910390fd5b805f5f9054906101000a900473ffffffffffffffffffffffffffffffffffffffff1673ffffffffffffffffffffffffffffffffffffffff166370a08231336040518263ffffffff1660e01b815260040161010c91906108eb565b602060405180830381865afa158015610127573d5f5f3e3d5ffd5b505050506040513d601f19601f8201168201806040525081019061014b9190610918565b101561018c576040517f08c379a0000000000000000000000000000000000000000000000000000000008152600401610183906109b3565b60405180910390fd5b8060015f9054906101000a900473ffffffffffffffffffffffffffffffffffffffff1673ffffffffffffffffffffffffffffffffffffffff166370a08231306040518263ffffffff1660e01b81526004016101e791906108eb565b602060405180830381865afa158015610202573d5f5f3e3d5ffd5b505050506040513d601f19601f820116820180604052508101906102269190610918565b1015610267576040517f08c379a000000000000000000000000000000000000000000000000000000000815260040161025e90610a41565b60405180910390fd5b5f5f9054906101000a900473ffffffffffffffffffffffffffffffffffffffff1673ffffffffffffffffffffffffffffffffffffffff166323b872dd3330846040518463ffffffff1660e01b81526004016102c493929190610a6e565b6020604051808303815f875af11580156102e0573d5f5f3e3d5ffd5b505050506040513d601f19601f820116820180604052508101906103049190610ad8565b610343576040517f08c379a000000000000000000000000000000000000000000000000000000000815260040161033a90610b4d565b60405180910390fd5b60015f9054906101000a900473ffffffffffffffffffffffffffffffffffffffff1673ffffffffffffffffffffffffffffffffffffffff1663a9059cbb33836040518363ffffffff1660e01b815260040161039f929190610b6b565b6020604051808303815f875af11580156103bb573d5f5f3e3d5ffd5b505050506040513d601f19601f820116820180604052508101906103df9190610ad8565b61041e576040517f08c379a000000000000000000000000000000000000000000000000000000000815260040161041590610bdc565b60405180910390fd5b50565b5f8111610463576040517f08c379a000000000000000000000000000000000000000000000000000000000815260040161045a9061088e565b60405180910390fd5b8060015f9054906101000a900473ffffffffffffffffffffffffffffffffffffffff1673ffffffffffffffffffffffffffffffffffffffff166370a08231336040518263ffffffff1660e01b81526004016104be91906108eb565b602060405180830381865afa1580156104d9573d5f5f3e3d5ffd5b505050506040513d601f19601f820116820180604052508101906104fd9190610918565b101561053e576040517f08c379a000000000000000000000000000000000000000000000000000000000815260040161053590610c6a565b60405180910390fd5b805f5f9054906101000a900473ffffffffffffffffffffffffffffffffffffffff1673ffffffffffffffffffffffffffffffffffffffff166370a08231306040518263ffffffff1660e01b815260040161059891906108eb565b602060405180830381865afa1580156105b3573d5f5f3e3d5ffd5b505050506040513d601f19601f820116820180604052508101906105d79190610918565b1015610618576040517f08c379a000000000000000000000000000000000000000000000000000000000815260040161060f90610cf8565b60405180910390fd5b60015f9054906101000a900473ffffffffffffffffffffffffffffffffffffffff1673ffffffffffffffffffffffffffffffffffffffff166323b872dd3330846040518463ffffffff1660e01b815260040161067693929190610a6e565b6020604051808303815f875af1158015610692573d5f5f3e3d5ffd5b505050506040513d601f19601f820116820180604052508101906106b69190610ad8565b6106f5576040517f08c379a00000000000000000000000000000000000000000000000000000000081526004016106ec90610d60565b60405180910390fd5b5f5f9054906101000a900473ffffffffffffffffffffffffffffffffffffffff1673ffffffffffffffffffffffffffffffffffffffff1663a9059cbb33836040518363ffffffff1660e01b8152600401610750929190610b6b565b6020604051808303815f875af115801561076c573d5f5f3e3d5ffd5b505050506040513d601f19601f820116820180604052508101906107909190610ad8565b6107cf576040517f08c379a00000000000000000000000000000000000000000000000000000000081526004016107c690610dc8565b60405180910390fd5b50565b5f5ffd5b5f819050919050565b6107e8816107d6565b81146107f2575f5ffd5b50565b5f81359050610803816107df565b92915050565b5f6020828403121561081e5761081d6107d2565b5b5f61082b848285016107f5565b91505092915050565b5f82825260208201905092915050565b7f416d6f756e74206d7573742062652067726561746572207468616e207a65726f5f82015250565b5f610878602083610834565b915061088382610844565b602082019050919050565b5f6020820190508181035f8301526108a58161086c565b9050919050565b5f73ffffffffffffffffffffffffffffffffffffffff82169050919050565b5f6108d5826108ac565b9050919050565b6108e5816108cb565b82525050565b5f6020820190506108fe5f8301846108dc565b92915050565b5f81519050610912816107df565b92915050565b5f6020828403121561092d5761092c6107d2565b5b5f61093a84828501610904565b91505092915050565b7f53656e64657220646f65736e2774206861766520656e6f756768204120746f6b5f8201527f656e7320746f2070726f76696465000000000000000000000000000000000000602082015250565b5f61099d602e83610834565b91506109a882610943565b604082019050919050565b5f6020820190508181035f8301526109ca81610991565b9050919050565b7f436f6e747261637420646f65736e2774206861766520656e6f756768204220745f8201527f6f6b656e7320746f2072657475726e0000000000000000000000000000000000602082015250565b5f610a2b602f83610834565b9150610a36826109d1565b604082019050919050565b5f6020820190508181035f830152610a5881610a1f565b9050919050565b610a68816107d6565b82525050565b5f606082019050610a815f8301866108dc565b610a8e60208301856108dc565b610a9b6040830184610a5f565b949350505050565b5f8115159050919050565b610ab781610aa3565b8114610ac1575f5ffd5b50565b5f81519050610ad281610aae565b92915050565b5f60208284031215610aed57610aec6107d2565b5b5f610afa84828501610ac4565b91505092915050565b7f50726f766973696f6e206f6620746f6b656e2041206661696c656400000000005f82015250565b5f610b37601b83610834565b9150610b4282610b03565b602082019050919050565b5f6020820190508181035f830152610b6481610b2b565b9050919050565b5f604082019050610b7e5f8301856108dc565b610b8b6020830184610a5f565b9392505050565b7f52657475726e206f6620746f6b656e2042206661696c656400000000000000005f82015250565b5f610bc6601883610834565b9150610bd182610b92565b602082019050919050565b5f6020820190508181035f830152610bf381610bba565b9050919050565b7f53656e64657220646f65736e2774206861766520656e6f756768204220746f6b5f8201527f656e7320746f2070726f76696465000000000000000000000000000000000000602082015250565b5f610c54602e83610834565b9150610c5f82610bfa565b604082019050919050565b5f6020820190508181035f830152610c8181610c48565b9050919050565b7f436f6e747261637420646f65736e2774206861766520656e6f756768204120745f8201527f6f6b656e7320746f2072657475726e0000000000000000000000000000000000602082015250565b5f610ce2602f83610834565b9150610ced82610c88565b604082019050919050565b5f6020820190508181035f830152610d0f81610cd6565b9050919050565b7f50726f766973696f6e206f6620746f6b656e2042206661696c656400000000005f82015250565b5f610d4a601b83610834565b9150610d5582610d16565b602082019050919050565b5f6020820190508181035f830152610d7781610d3e565b9050919050565b7f52657475726e206f6620746f6b656e2041206661696c656400000000000000005f82015250565b5f610db2601883610834565b9150610dbd82610d7e565b602082019050919050565b5f6020820190508181035f830152610ddf81610da6565b905091905056fea2646970667358221220b67074c8c7c54f66ec212d06eecae72fb6abbaf3dd5615d17e85d96e1d1781b964736f6c634300081e0033","linkReferences":{}},"methodIdentifiers":{"swapAtoB(uint256)":"da0d6735","swapBtoA(uint256)":"e0441df0"},"id":25}