{"abi":[{"type":"function","name":"getGreeting","inputs":[{"name":"_name","type":"string","internalType":"string"}],"outputs":[{"name":"","type":"string","internalType":"string"}],"stateMutability":"view"},{"type":"function","name":"greeting","inputs":[],"outputs":[{"name":"","type":"string","internalType":"string"}],"stateMutability":"view"},{"type":"function","name":"setGreeting","inputs":[{"name":"_greeting","type":"string","internalType":"string"}],"outputs":[],"stateMutability":"nonpayable"}],"bytecode":{"object":"0x6080604052348015600e575f5ffd5b5061085f8061001c5f395ff3fe608060405234801561000f575f5ffd5b506004361061003f575f3560e01c8063229611b614610043578063a413686214610073578063ef690cc01461008f575b5f5ffd5b61005d6004803603810190610058919061035b565b6100ad565b60405161006a9190610402565b60405180910390f35b61008d6004803603810190610088919061035b565b610171565b005b610097610183565b6040516100a49190610402565b60405180910390f35b60605f825111156100e1575f826040516020016100cb929190610595565b604051602081830303815290604052905061016c565b5f80546100ed9061044f565b80601f01602080910402602001604051908101604052809291908181526020018280546101199061044f565b80156101645780601f1061013b57610100808354040283529160200191610164565b820191905f5260205f20905b81548152906001019060200180831161014757829003601f168201915b505050505090505b919050565b805f908161017f919061075a565b5050565b5f805461018f9061044f565b80601f01602080910402602001604051908101604052809291908181526020018280546101bb9061044f565b80156102065780601f106101dd57610100808354040283529160200191610206565b820191905f5260205f20905b8154815290600101906020018083116101e957829003601f168201915b505050505081565b5f604051905090565b5f5ffd5b5f5ffd5b5f5ffd5b5f5ffd5b5f601f19601f8301169050919050565b7f4e487b71000000000000000000000000000000000000000000000000000000005f52604160045260245ffd5b61026d82610227565b810181811067ffffffffffffffff8211171561028c5761028b610237565b5b80604052505050565b5f61029e61020e565b90506102aa8282610264565b919050565b5f67ffffffffffffffff8211156102c9576102c8610237565b5b6102d282610227565b9050602081019050919050565b828183375f83830152505050565b5f6102ff6102fa846102af565b610295565b90508281526020810184848401111561031b5761031a610223565b5b6103268482856102df565b509392505050565b5f82601f8301126103425761034161021f565b5b81356103528482602086016102ed565b91505092915050565b5f602082840312156103705761036f610217565b5b5f82013567ffffffffffffffff81111561038d5761038c61021b565b5b6103998482850161032e565b91505092915050565b5f81519050919050565b5f82825260208201905092915050565b8281835e5f83830152505050565b5f6103d4826103a2565b6103de81856103ac565b93506103ee8185602086016103bc565b6103f781610227565b840191505092915050565b5f6020820190508181035f83015261041a81846103ca565b905092915050565b7f4e487b71000000000000000000000000000000000000000000000000000000005f52602260045260245ffd5b5f600282049050600182168061046657607f821691505b60208210810361047957610478610422565b5b50919050565b5f81905092915050565b5f819050815f5260205f209050919050565b5f81546104a78161044f565b6104b1818661047f565b9450600182165f81146104cb57600181146104e057610512565b60ff1983168652811515820286019350610512565b6104e985610489565b5f5b8381101561050a578154818901526001820191506020810190506104eb565b838801955050505b50505092915050565b7f20000000000000000000000000000000000000000000000000000000000000005f82015250565b5f61054f60018361047f565b915061055a8261051b565b600182019050919050565b5f61056f826103a2565b610579818561047f565b93506105898185602086016103bc565b80840191505092915050565b5f6105a0828561049b565b91506105ab82610543565b91506105b78284610565565b91508190509392505050565b5f6020601f8301049050919050565b5f82821b905092915050565b5f6008830261060d7fffffffffffffffffffffffffffffffffffffffffffffffffffffffffffffffff826105d2565b61061786836105d2565b95508019841693508086168417925050509392505050565b5f819050919050565b5f819050919050565b5f61065b6106566106518461062f565b610638565b61062f565b9050919050565b5f819050919050565b61067483610641565b61068861068082610662565b8484546105de565b825550505050565b5f5f905090565b61069f610690565b6106aa81848461066b565b505050565b5b818110156106cd576106c25f82610697565b6001810190506106b0565b5050565b601f821115610712576106e381610489565b6106ec846105c3565b810160208510156106fb578190505b61070f610707856105c3565b8301826106af565b50505b505050565b5f82821c905092915050565b5f6107325f1984600802610717565b1980831691505092915050565b5f61074a8383610723565b9150826002028217905092915050565b610763826103a2565b67ffffffffffffffff81111561077c5761077b610237565b5b610786825461044f565b6107918282856106d1565b5f60209050601f8311600181146107c2575f84156107b0578287015190505b6107ba858261073f565b865550610821565b601f1984166107d086610489565b5f5b828110156107f7578489015182556001820191506020850194506020810190506107d2565b868310156108145784890151610810601f891682610723565b8355505b6001600288020188555050505b50505050505056fea2646970667358221220f7d1d5226d88d649b346222ccc763c8add261a7fe214859f83a4ace59ab13be864736f6c634300081e0033","linkReferences":{}},"methodIdentifiers":{"getGreeting(string)":"229611b6","greeting()":"ef690cc0","setGreeting(string)":"a4136862"},"id":0}