{"abi":[{"type":"constructor","inputs":[{"name":"duration","type":"uint256","internalType":"uint256"}],"stateMutability":"nonpayable"},{"type":"function","name":"auctionEndTime","inputs":[],"outputs":[{"name":"","type":"uint256","internalType":"uint256"}],"stateMutability":"view"},{"type":"function","name":"bid","inputs":[],"outputs":[],"stateMutability":"payable"},{"type":"function","name":"endAuction","inputs":[],"outputs":[],"stateMutability":"nonpayable"},{"type":"function","name":"ended","inputs":[],"outputs":[{"name":"","type":"bool","internalType":"bool"}],"stateMutability":"view"},{"type":"function","name":"highestBid","inputs":[],"outputs":[{"name":"","type":"uint256","internalType":"uint256"}],"stateMutability":"view"},{"type":"function","name":"highestBidder","inputs":[],"outputs":[{"name":"","type":"address","internalType":"address"}],"stateMutability":"view"},{"type":"function","name":"owner","inputs":[],"outputs":[{"name":"","type":"address","internalType":"address"}],"stateMutability":"view"},{"type":"function","name":"timeLeft","inputs":[],"outputs":[{"name":"","type":"uint256","internalType":"uint256"}],"stateMutability":"view"},{"type":"event","name":"AuctionEnded","inputs":[{"name":"winner","type":"address","indexed":true,"internalType":"address"},{"name":"amount","type":"uint256","indexed":false,"internalType":"uint256"}],"anonymous":false},{"type":"event","name":"AuctionExtended","inputs":[{"name":"newEndTime","type":"uint256","indexed":false,"internalType":"uint256"}],"anonymous":false},{"type":"event","name":"BidPlaced","inputs":[{"name":"bidder","type":"address","indexed":false,"internalType":"address"},{"name":"amount","type":"uint256","indexed":false,"internalType":"uint256"}],"anonymous":false}],"bytecode":{"object":"0x608060405234801561000f575f5ffd5b5060405161096a38038061096a833981810160405281019061003191906100bf565b335f5f6101000a81548173ffffffffffffffffffffffffffffffffffffffff021916908373ffffffffffffffffffffffffffffffffffffffff160217905550804261007c9190610117565b6003819055505061014a565b5f5ffd5b5f819050919050565b61009e8161008c565b81146100a8575f5ffd5b50565b5f815190506100b981610095565b92915050565b5f602082840312156100d4576100d3610088565b5b5f6100e1848285016100ab565b91505092915050565b7f4e487b71000000000000000000000000000000000000000000000000000000005f52601160045260245ffd5b5f6101218261008c565b915061012c8361008c565b9250828201905080821115610144576101436100ea565b5b92915050565b610813806101575f395ff3fe60806040526004361061007a575f3560e01c80638da5cb5b1161004d5780638da5cb5b1461010657806391f9015714610130578063d57bde791461015a578063fe67a54b146101845761007a565b806312fa6feb1461007e5780631300a6d1146100a85780631998aeef146100d25780634b449cba146100dc575b5f5ffd5b348015610089575f5ffd5b5061009261019a565b60405161009f91906104d1565b60405180910390f35b3480156100b3575f5ffd5b506100bc6101ac565b6040516100c99190610502565b60405180910390f35b6100da6101d2565b005b3480156100e7575f5ffd5b506100f0610341565b6040516100fd9190610502565b60405180910390f35b348015610111575f5ffd5b5061011a610347565b604051610127919061055a565b60405180910390f35b34801561013b575f5ffd5b5061014461036b565b604051610151919061055a565b60405180910390f35b348015610165575f5ffd5b5061016e610390565b60405161017b9190610502565b60405180910390f35b34801561018f575f5ffd5b50610198610396565b005b60045f9054906101000a900460ff1681565b5f60035442106101be575f90506101cf565b426003546101cc91906105a0565b90505b90565b6003544210610216576040517f08c379a000000000000000000000000000000000000000000000000000000000815260040161020d9061062d565b60405180910390fd5b600254341161025a576040517f08c379a000000000000000000000000000000000000000000000000000000000815260040161025190610695565b60405180910390fd5b3360015f6101000a81548173ffffffffffffffffffffffffffffffffffffffff021916908373ffffffffffffffffffffffffffffffffffffffff1602179055503460028190555061012c426003546102b291906105a0565b10156103065761012c426102c691906106b3565b6003819055507fc2b459809119087ca9d2bc10dea53a51b7d848b1a11075db037bdca58292c3e86003546040516102fd9190610502565b60405180910390a15b7f3fabff0a9c3ecd6814702e247fa9733e5d0aa69e3a38590f92cb18f623a2254d33346040516103379291906106e6565b60405180910390a1565b60035481565b5f5f9054906101000a900473ffffffffffffffffffffffffffffffffffffffff1681565b60015f9054906101000a900473ffffffffffffffffffffffffffffffffffffffff1681565b60025481565b6003544210156103db576040517f08c379a00000000000000000000000000000000000000000000000000000000081526004016103d290610757565b60405180910390fd5b60045f9054906101000a900460ff161561042a576040517f08c379a0000000000000000000000000000000000000000000000000000000008152600401610421906107bf565b60405180910390fd5b600160045f6101000a81548160ff02191690831515021790555060015f9054906101000a900473ffffffffffffffffffffffffffffffffffffffff1673ffffffffffffffffffffffffffffffffffffffff167fdaec4582d5d9595688c8c98545fdd1c696d41c6aeaeb636737e84ed2f5c00eda6002546040516104ad9190610502565b60405180910390a2565b5f8115159050919050565b6104cb816104b7565b82525050565b5f6020820190506104e45f8301846104c2565b92915050565b5f819050919050565b6104fc816104ea565b82525050565b5f6020820190506105155f8301846104f3565b92915050565b5f73ffffffffffffffffffffffffffffffffffffffff82169050919050565b5f6105448261051b565b9050919050565b6105548161053a565b82525050565b5f60208201905061056d5f83018461054b565b92915050565b7f4e487b71000000000000000000000000000000000000000000000000000000005f52601160045260245ffd5b5f6105aa826104ea565b91506105b5836104ea565b92508282039050818111156105cd576105cc610573565b5b92915050565b5f82825260208201905092915050565b7f41756374696f6e20656e646564000000000000000000000000000000000000005f82015250565b5f610617600d836105d3565b9150610622826105e3565b602082019050919050565b5f6020820190508181035f8301526106448161060b565b9050919050565b7f42696420746f6f206c6f770000000000000000000000000000000000000000005f82015250565b5f61067f600b836105d3565b915061068a8261064b565b602082019050919050565b5f6020820190508181035f8301526106ac81610673565b9050919050565b5f6106bd826104ea565b91506106c8836104ea565b92508282019050808211156106e0576106df610573565b5b92915050565b5f6040820190506106f95f83018561054b565b61070660208301846104f3565b9392505050565b7f41756374696f6e207374696c6c206163746976650000000000000000000000005f82015250565b5f6107416014836105d3565b915061074c8261070d565b602082019050919050565b5f6020820190508181035f83015261076e81610735565b9050919050565b7f416c726561647920656e646564000000000000000000000000000000000000005f82015250565b5f6107a9600d836105d3565b91506107b482610775565b602082019050919050565b5f6020820190508181035f8301526107d68161079d565b905091905056fea2646970667358221220c2216292ea2a260105f57d3a9c947119cddd4eb74547cbdc18316ef2d8ff7dbb64736f6c634300081e0033","linkReferences":{}},"methodIdentifiers":{"auctionEndTime()":"4b449cba","bid()":"1998aeef","endAuction()":"fe67a54b","ended()":"12fa6feb","highestBid()":"d57bde79","highestBidder()":"91f90157","owner()":"8da5cb5b","timeLeft()":"1300a6d1"},"id":19}